:020000040000FA
:0400000080315728CC
:0800080080314C288207E83426
:10001000033458340234903401342C34013418340D
:100020000134F03400342030B6000310AC0DAD0DB7
:10003000AE0DAF0D0310A40DA50DA60DA70D031C4D
:1000400029282808AC072908AD3D2A08AE3D2B0811
:10005000AF3DB60B152808001030B600A601A70169
:100060000310AA0DAB0D0310A40DA50DA60DA70D31
:1000700027082902031D3E282608280203194228C2
:10008000031849282908A7022808A602031CA70369
:100090002A14B60B3028080020002008B0002108E0
:1000A000B1002208B2002308B30093315F2B18304F
:1000B000BA00D230BB002230BC00BD01E530BE002A
:1000C0005530BF009A30C0001530C10081315F2922
:1000D00020003A08A4003B08A5003C08A6003D0803
:1000E000A700CD30A8000D30A9000130AA00AB0157
:1000F000132020002C082100D00020002D08210012
:10010000D10020002E082100D20020002F0821005D
:10011000D3007B3050072000A00000302100513D6B
:100120002000A10000302100523D2000A20000303C
:100130002100533D2000A3002008BA002108BB0085
:100140002208BC002308BD0040082100D300200085
:100150003F082100D20020003E082100D100D0013C
:100160000530FF000310D10DD20DD30D8031FF0BF0
:10017000B22850082000BE06210051082000BF060A
:10018000210052082000C006210053082000C106AB
:1001900040082100D000200041082100D100D201F8
:1001A000D3010310D10CD00C50082000BE06210052
:1001B00051082000BF06210052082000C00621007F
:1001C00053082000C10603103E0D2100D00020007E
:1001D0003F0D2100D1002000400D2100D200200061
:1001E000410D2100D3000430FF000310D00DD10DCC
:1001F000D20DD30DFF0BF52850082000BE062100BC
:1002000051082000BF06210052082000C00621002E
:1002100053082000C1063A083E072100D000200004
:100220003B083F3D2100D10050082000A0002100E4
:1002300051082000A1000800803168286F08FA00EA
:100240007008FB00FC01FD012300951C28292429CE
:100250007A0891007B089200151395131514130862
:10026000F8000800F8006F082100A00020007008C6
:100270002100A100A201A3012300951C40293C29D3
:100280002100200823009100210021082300920072
:10029000151395137808930015157A108B1B7A1493
:1002A0008B1355309600AA3096009514000000007C
:1002B0007A185C298B135D298B171511080087307C
:1002C0002100190578389900FC3099053F30240049
:1002D0008C00FF308D00FF308E002100951323002D
:1002E0008C018D018E0121009D019E0104302200B0
:1002F0009100920104309300940121000E108E10A1
:100300000E118E110E128E120E138E138D130D13ED
:100310008D128C150C168C160C150D122000CE01AA
:10032000CF01D001D10193317B2B5808DA00590855
:10033000DB00DC01DD01AD292000A630A000063085
:10034000A1008131A10BA2298131A00B9F290000BE
:1003500000002100DC0A0319DD0A5C085A022000B3
:10036000A00021005D085B0220002004031D9C29E1
:1003700008004E08D4004F08D500D601D701D62971
:1003800020003030A000F830A1006E30A200813192
:10039000A20BC8298131A10BC5298131A00BC3292A
:1003A000000000002100D60A0319D70A560854029B
:1003B0002000A00021005708550220002004031D42
:1003C000C029080019302100D800D9019529210041
:1003D0003D1020008C19F329E221813120008C1975
:1003E000F32921003D1421003D18F9292000201097
:1003F00008002000201408003D10823120000C1A53
:10040000092A8131E221823120000C1A092A2100B7
:100410003D1421003D180F2A200020100800200064
:100420002014080020008C19162A122A8131E2219A
:10043000823120008C191D2A182A08000C1E212A3E
:100440001E2A8131E221823120000C1E282A232A13
:10045000080020000C1A2D2A292A8131E22182313C
:1004600020000C1A342A2F2A080020008C1D3B2A59
:10047000210056103D2A2100561420000C1E432A4C
:100480002100D610452A2100D6145611561CD61824
:100490005615561D4C2A352A8131E2218231200021
:1004A0008C1D552A2100D611572A2100D61520006F
:1004B0000C1E5D2A210056125F2A21005616D61204
:1004C000D61D561AD616D61E662A4E2A08002100B8
:1004D000CE0120008C19852A8131E2218231200051
:1004E0008C19852A0C1A822A8131E221823120005E
:1004F0000C1A7E2A03302100CE00852A013021000B
:10050000CE00852A01302100CE0020000C1AA12A3D
:100510008131E221823120000C1AA12A8C199E2AF5
:100520008131E221823120008C199A2A0330210086
:10053000CE00A12A02302100CE00A12A02302100E3
:10054000CE0021004E08080020001C1108002000E9
:100550001C150800A422200091106B1087309C0508
:10056000FC301C0502389C00F9309B0021009114DE
:100570000B178B178231A72AA422200091106B1031
:100580009A01210032082000D30021003308200006
:10059000D400D501D6018231A72AA4222000550813
:1005A0002100B200200056082100B3008231A722AA
:1005B000210032082000A000210033082000A10003
:1005C00008008331911C0C2B9110D50A0319D60A0F
:1005D000530854048231031DEF2A6B14F32AD3030A
:1005E000530A0319D403CE0A0319CF0A0319D00AF8
:1005F0000319D10AE0304E02A00093304F02A0044C
:1006000004305002200451048331031D0C2BCE0111
:10061000CF01D001D10101003008A0003108A100B4
:100620003208A2003308A30009002100CE004E03C7
:10063000031D222B013020000E042100D0002200D7
:100640008E00080002304E02031D2E2B02302000C7
:100650000E042100D00022008E00080003304E025C
:10066000031D3A2B043020000E042100D00022008C
:100670008E00080004304E02031D462B0830200077
:100680000E042100D00022008E00080005304E022A
:10069000031D522B103020000E042100D000220038
:1006A0008E00080006304E02031D5E2B2030200015
:1006B0000E042100D00022008E00080007304E02F8
:1006C000031D6A2B403020000E042100D0002200C0
:1006D0008E00080008304E02031D752B803020006C
:1006E0000E042100D00022008E000800BD003D0352
:1006F000031D822BFE3020000E052100BE002200CB
:100700008E00080002303D02031D8E2BFD302000BC
:100710000E052100BE0022008E00080003303D02BD
:10072000031D9A2BFB3020000E052100BE00220085
:100730008E00080004303D02031DA62BF730200078
:100740000E052100BE0022008E00080005303D028B
:10075000031DB22BEF3020000E052100BE00220049
:100760008E00080006303D02031DBE2BDF30200046
:100770000E052100BE0022008E00080007303D0259
:10078000031DCA2BBF3020000E052100BE00220031
:100790008E00080008303D02031DD52B7F3020005D
:1007A0000E052100BE0022008E000800CE004E0380
:1007B000031DE22B013020000E062100D000220094
:1007C0008E00080002304E02031DEE2B0230200086
:1007D0000E062100D00022008E00080003304E02D9
:1007E000031DFA2B043020000E062100D000220049
:1007F0008E00080004304E028431031D072C08309F
:1008000020000E062100D00022008E0008000530D6
:100810004E02031D132C103020000E062100D000C4
:1008200022008E00080006304E02031D1F2C2030CF
:1008300020000E062100D00022008E0008000730A4
:100840004E02031D2B2C403020000E062100D0004C
:1008500022008E00080008304E02031D362C803026
:1008600020000E062100D00022008E000800BD00EE
:1008700022008E010A302000A800A90121003D08B5
:100880002000A400A50180312C2020002A0821008E
:10089000BE003E088431031D4F2C0130BE00823162
:1008A00035222100C810843120008C190C1E5A2CCE
:1008B0002100C8142100C81CCD2C3E08CA00CB0161
:1008C000922C031020000E0D2100C10001304104C4
:1008D000C20022008E002100C00196304002481163
:1008E0000319742C031C4815C811481D7C2C2000CA
:1008F0008C1D7C2C2100C81521004812C81D852C98
:1009000020000C1E852C210048162100481E912C29
:100910000130D800D901813195212100C00A8431EC
:100920006D2CCB0A4B084A02031D612C3E08CC00FB
:10093000CD01C82C031020000E0C2100C1002200A4
:100940008E002100C0019630400248130319AA2CE2
:10095000031C4817C813481FB22C20008C1DB22C52
:100960002100C81721004910C81FBB2C20000C1EF5
:10097000BB2C210049142100491CC72C0130D80090
:10098000D901813195212100C00A8431A32CCD0ADF
:100990004D084C02031D9A2C512C82313522220025
:1009A0008E01080022008E012100CE0154148231F4
:1009B000352285312100541C482D4E088431031DF9
:1009C000E92C183022008E0001302100CE00853144
:1009D0001F2D4E03031DF42C3C3022008E000230EC
:1009E0002100CE0085311F2D02304E028531031DBE
:1009F000002D7E3022008E0003302100CE001F2DFE
:100A000003304E02031D0B2DFF3022008E000430F8
:100A10002100CE001F2D04304E02031D162D7E3006
:100A200022008E0005302100CE001F2D05304E0221
:100A3000031D1F2D3C3022008E002100CE011430FA
:100A4000D0005008D4170319D4135510D41F2D2DDE
:100A500020000C1E2D2D210055142100D510551CF1
:100A6000362D20008C1D362D2100D5142100D51CDB
:100A7000422D0A30D800D901813195212100D003BF
:100A80008531212D50085414031D54108431D92C64
:100A90008231352222008E01080022008E012000C2
:100AA000EF01F00182313522210020108531200034
:100AB0008C190C1E5D2D21002014013020007002C5
:100AC000031D642D2C306F022100A01003196A2D24
:100AD000031CA01420152018A01C2011201D9F2DE0
:100AE00081311C21FA0022008E002000EF0A031938
:100AF000F00AF801143078022100A01185310319A1
:100B0000832D031CA0152012A01D8B2D20008C1DF1
:100B10008B2D210020162100A012201E942D2000D4
:100B20000C1E942D2100A0162100A01E542DF80AA1
:100B30000A30D800D9018131952185317A2D933140
:100B400075238231352222008E0108002000DD014C
:100B50001810EB1211106B126B1AB12D2100151326
:100B6000B32D210015178B1008000B1220006B11FC
:100B700022000D12080022000D16A62520006B1180
:100B80000B160800A6258531B5253F3020009805B5
:100B9000CF30180520389800210011140B178B173F
:100BA0000800200020106B19201408002000EB180A
:100BB000DC2D21005410DE2D2100541420005F088C
:100BC0002100CE00200060082100D00020006B1121
:100BD00021004E0808002000EB1EF22DFF30A0007F
:100BE000A10008001608A0001708A100080096013F
:100BF0009701EB1211101814080082312000111C0B
:100C0000E12A11101810EB168B14E12A20004A1467
:100C10008B180B1E4A1085314A1CFD2D8B10863116
:100C20006B1E142E6B12152E6B166B1A1A2E2100CA
:100C300015131C2E210015178531EB2520002008E7
:100C4000DB002108DC008531F72520005D088631B6
:100C5000031D2E2E0130DD008531FD2D5D03031DAA
:100C6000532E0B305C02031D372EB8305B024A1244
:100C7000031D03184A1613305C02031D412E8830F1
:100C80005B02CA12031D031CCA164A174A1ACA1E5F
:100C90004A134A1F4F2E0230DD008531FD2D85316C
:100CA000A6258531FD2D02305D02031D7F2E053006
:100CB0005C02031D5D2EDC305B024B10031D03182C
:100CC0004B1409305C02031D672EC4305B02CB104D
:100CD000031D031CCB144B154B18CB1C4B114B1D88
:100CE0007B2EEB15D701D801D901DA01DE010330E3
:100CF000DD008531FD2D8531A6258531FD2D0330A3
:100D00005D028531031DFD2D01305C028631031D1E
:100D10008B2E77305B024B12031D03184B160230EB
:100D20005C02031D952E71305B02CB12031D031C68
:100D3000CB164B174B1ACB1E4B134B1FAD2EEB1D77
:100D4000AB2EDE0A0310D70DD80DD90DDA0D6B1EB0
:100D50005714EB11D32EEB15D32E02305C02031D7A
:100D6000B32EEE305B024C10031D03184C140430FC
:100D70005C02031DBD2EE2305B02CC10031D031C80
:100D8000CC144C154C18CC1C4C114C1DD12EDE0A29
:100D90000310D70DD80DD90DDA0D6B1AD32E5714B9
:100DA000D32E8531A625133020005E028731031D26
:100DB0001D2FC201C30104305905C400C5014208FA
:100DC000430444044504CC160319CC1201305705E2
:100DD000C600C701C801C9014608470448044904C0
:100DE0004C17031D4C13CC17CC1A4C1FCC13CC1F23
:100DF000192F0310DA0CD90CD80CD70CC201C3017F
:100E000001305905C400C5014208430444044504A7
:100E1000EB140319EB10D901DA015808A0005908A6
:100E2000A1005A08A200A3012008DF005708E00033
:100E30006B158531A6258531FD2D8531FD2D2000D1
:100E4000670821004E14031D4E104E182A2F200053
:100E5000201008002000201408002000670821004E
:100E60004E1403194E100530200067022100CE10E9
:100E7000031DCE144E154E18CE1C4E114E19432F85
:100E800020002010080020002014080021008C12EF
:100E9000080021008C160800492728001E11873001
:100EA0009E05FC309E0568309D00083025009E00A0
:100EB0003F309A05F0301A050E389A0022001E14B1
:100EC000CF3025009A053430980028001E15080000
:100ED0002800171149272000E70108006B1F762F13
:100EE000E1010330E200E301E4017B2FE101023084
:100EF000E200E301E4016508E1046308E40062083C
:100F0000E3006108E200E1016608E1046308E4002F
:100F10006208E3006108E200E1010630FF0003100F
:100F2000E20DE30DE40DFF0B8F2F0830E800EB1707
:100F30000130E700280095011715080068272000F8
:100F40006B13931087302800170538389700FC3052
:100F50009705F9309600210093140B178B178731F2
:100F60004C2F2100CE0020006708031DC82F210050
:100F70005418BD2F20006B13BF2F20006B172100CA
:100F80004E082000E500210050082000E6006E2FEA
:100F9000080086312000931C062E931067088731C5
:100FA000031DD42F8631062E6703031DE32F46272A
:100FB0002000E80368088631031D062E0430E8008F
:100FC0000230E700062E02306702031DF42F492786
:100FD0002000E80368088631031D062E1330E80060
:100FE000EB170330E700062E033067028831031D3C
:100FF0003328EB1F1128C201C301C40180306405EE
:10100000C500420843044404450403190B288731F2
:10101000462788310D28873149272000EB13863178
:10102000062EC201C301C40180306405C500420818
:101030004304440445040319212887314927883192
:101040002328873146272000EB170310E10DE20D1E
:10105000E30DE40DE80368088831031D31280430EE
:10106000E7008631062E04306702031D40288731D1
:10107000492796302000E8000530E7008631062E2B
:1010800005306702031D4C28E8036808031D4C283F
:10109000873168278631062E8631062EEF01013012
:1010A000F70021002014013022008E002100201CB6
:1010B000F228083077022100A01003196128031CD0
:1010C000A0142015A018201C2011201DA028F80114
:1010D0003C3078022100A01103197028031CA015D0
:1010E0002012A01D782820008C1D782821002016B1
:1010F0002100A012201E812820000C1E8128210022
:10110000A0162100A01E8C280A30D800D9018131F8
:101110009521F80A88316828201320008C190C1EAC
:101120009328210020172100201F9E280310200053
:101130000E0DFA0022008E00F70A592820105928B7
:10114000F70377082100A0170319A0132114A01B8F
:10115000201C2110211CE528F8013C3078022100D8
:10116000A1100319B528031CA1142111A11CBD282D
:1011700020008C1DBD28210021152100A111211D59
:10118000C62820000C1EC6282100A1152100A11D83
:10119000D1280A30D800D90181319521F80A883147
:1011A000AD28211220008C190C1ED82821002116F0
:1011B0002100211EE328031020000E0CFA0022005B
:1011C0008E00F703A1282010A128F70A2000EF0ABB
:1011D0000F306F02031D562801300E05F700210065
:1011E00020105628933175238231352222008E013A
:1011F00077080800EF01F00122008E0182313522CC
:101200007A1420008C190C1E7A1089317A1C3E2920
:1012100022008D1701302100D800D901813195219C
:1012200022008D13F80164307802FA108931031915
:101230001B29031CFA147A152000FA188C1D7A1148
:10124000FA157A190C1EFA11FA1D0029F80AEF0A8C
:101250000319F00A50306F02A000463070022004DB
:10126000031D3629EF01F00193314D230A3021008F
:10127000D800D90181319521893113299331752302
:101280008231352A0130F70022008E012100201022
:1012900020008C190C1E4E29210020142100201C36
:1012A000B52901302000EF007708F8002100A010D8
:1012B00020008C190C1E5E292100A014083020008B
:1012C0006F022100201103196729031C2015A015A6
:1012D000A018201DA011A01D8729780803197729BF
:1012E000013020000E04FA0022008E00F803643062
:1012F0002100D800D90181319521031020000E0D65
:10130000FA0022008E002000EF0A89315629770862
:10131000F8002100A01220008C190C1E9129210038
:10132000A01678082100201703192013A017A01A6F
:10133000201FA013A01FAA29F8036430D800D901E8
:1013400081319521031020000E0DFA0022008E003D
:1013500089318929083077020319B2290318B22983
:10136000F70A46290130F700462993317523823167
:10137000352222008E01080022008E017A14FA1410
:1013800020008C190C1EFA108A31FA1C4B2A0130ED
:10139000EF000430F7007A158C190C1E7A11083012
:1013A0006F02FA1189310319D729031CFA157A162D
:1013B0007A19FA1D7A128A317A1E142A89317A1C16
:1013C000FA2977080319EA2901300E04F8002200EF
:1013D0008E00F70332302100D800D90181319521E8
:1013E000031020000E0DF80022008E002000EF0AEE
:1013F0008931CB2977088A310319042A80300E04F9
:10140000F80022008E00F70332302100D800D90105
:1014100081319521031020000E0CF80022008E006F
:101420002000EF0A8931CB290430F700FA17200099
:101430008C190C1EFA1377087B1403197B10FB140C
:10144000FA1B7B1CFB10FB1C442A7A1C352A323009
:101450002100D800D90181319521031020000E0D03
:10146000F80022008E008A31412A32302100D80053
:10147000D90181319521031020000E0CF8002200C3
:101480008E00F7038A31162A7A1C482A7A10492AD4
:101490007A148931BF299331752382313522220094
:1014A0008E01080021003414A60108302100260214
:1014B000341103195D2A031C3415B4153418341D76
:1014C000B4118B31B41DD42B0130CE00CF0181314A
:1014D000B9212100B41422008E018D130D138D1239
:1014E0002100A60A2608BC00AC018A31A62A813157
:1014F0001C212100B00007303005B1006F3084009E
:1015000085012C088407310A80006F308400850132
:101510002C088407000883311523F4302100D800FB
:101520000130D900813195216F308400850121007F
:101530002C088407000883317623F4302100D8007A
:101540000130D900813195212100AC0A2C083C02E0
:101550008A31031D772A0130CE00CF018131B921B4
:1015600022008D1701308331152301302100AD0099
:10157000AC012100B4163418B41CB4122C08260295
:1015800034138A310319C62A03183417B417B41A4E
:10159000341FB4138B31B41FCD2B8131FC218A3120
:1015A00020002018D62A21003510D82A2100351411
:1015B0008B31351C4D2B933175232100AE018A31BF
:1015C00020000C1EE62A2100B510E82A2100B514DF
:1015D00019302E0235110319EF2A031C3515B515E4
:1015E000B518351DB511B51DFE2A1430D800D90126
:1015F000813195212100AE0A8A31DF2A19302E026D
:101600008B31031D362B6F30840085012C08840735
:1016100000082D02031D192BAC0A22000D17013002
:101620002100CE00CF018131B92122000D138B3171
:10163000452B22000D138D1682313522823167220F
:101640002100AA002A088B3103191E2B02302A021E
:10165000031D2D2BA601B4102E2B341022008E0159
:101660008D128D13823135228B31452B2D0883311C
:101670007623083021002D028B310319422B0318E9
:10168000422BAD0A2D08833115238A312100341CE9
:10169000B92A823129228A31B92A8131E7218B3155
:1016A00020002018562B2100B610582B2100B6140C
:1016B0008A31B61CB92A933175232100AE018B31D2
:1016C00020008C1D662B21003611682B2100361559
:1016D00019302E02B61103196F2B031CB6153616DE
:1016E0003619B61D3612361E7E2B1430D800D9019D
:1016F000813195212100AE0A8B315F2B19302E02EA
:10170000031DB62B6F30840085012C088407000868
:101710002D02031D992BAC0A22000D17F430210075
:10172000D8000130D9008131952122000D138B3171
:10173000C52B22000D138D1682313522823167228E
:101740002100AA002A088B3103199E2B02302A029D
:10175000031DAD2BA601B410AE2B341022008E0158
:101760008D128D13823135228B31C52B2D0883319B
:101770007623013021002D028B310319C22B031C6B
:10178000C22BAD032D08833115238A312100341C6F
:10179000B92A823112228A31B92A22008E018D1390
:1017A000823135228A31552A08302602031DDC2B6E
:1017B0008431D2248B31E62B0310260DB0000310A8
:1017C000B00D0310B00D300884313724823135223A
:1017D00022000D138D128E0108008030B8000230F7
:1017E000B9008030BB00BC01BD0138082000A80052
:1017F000210039082000A900210032082000A4009F
:10180000210033082000A50080312C2020002A0868
:101810002100BE0020002B082100BF003E083F042D
:101820008C3103191B2C3B08BC043908B30238085F
:10183000B202031CB3030310B90CB80C0310BB0CA9
:10184000BD0A07303D028B31031DF52B3C082200F9
:101850008E000800FF3022008E0001302100CE00F3
:10186000CF018131B9212100B201031020000E0CFB
:101870002100B40022008E0001302100CE00CF01F3
:101880008131B9212100B20A083032028C31031DA6
:10189000352C0800FF3022008E008D138D120D13A1
:1018A00021002E14A401823135228D3121002E1CFD
:1018B000452D8C3120008D1A612C82311E228231FF
:1018C000292222008D120D138E01F4302100D80040
:1018D0000130D9008131952103102100240DA6008B
:1018E000803106202000EF000130210026078031E2
:1018F00006202000F0006F082100B20020007008D0
:101900002100B3008B31ED2302302100CE00CF0146
:101910008131B92122008E01803168202000200809
:101920002100A600200021082100A700503020003F
:10193000A8004630A900210026082000A4002100AC
:1019400027082000A50080312C2020002608210037
:10195000A800200027082100A900B8302807A0000F
:101960000B30293DA100200821042E1503192E114A
:10197000AE118C312E1DC12C20000C1EC12C21005B
:10198000AE152100AE1DD72C2000DE30A0000430A3
:10199000A1008C31A10BCA2C8C31A00BC72C0000EC
:1019A00000002100A003200A0319A103B32C200882
:1019B00021040319DE2C2A248D31392D22008D17A4
:1019C00020006F082100B200200070082100B30041
:1019D0008231BC228C3120006B1CF12C2100AE1214
:1019E000F32C2100AE162E1320000C1EFA2C210021
:1019F000AE1A2E178D3121002E1F002D8C31EA2CAE
:101A000022008D138231CD2220002008F800210809
:101A1000F9008D316B1C292D22008D1678082100CC
:101A2000B2007908B3008B31ED23210024088D31F9
:101A3000031DA40382313522823167222100A500D3
:101A400025088D3103191C2D2503031D392D2E105A
:101A5000392D22000D172100A40A7808B200790858
:101A6000B3008B31ED2301302100CE00CF01813155
:101A7000B9210630210024028D3103192E10933133
:101A80007523823135228C31552C22000D138D1295
:101A90008D13063021002402031D522D8431D224DF
:101AA0008D31662D240AA6002000A400A501A60100
:101AB000A7010C30A800A901AA01AB0180311320B5
:101AC00020002C082100A7008431372482313522E0
:101AD00022008E0108002100261422008D1382317D
:101AE00035228D312100261CBE2D813022008E0032
:101AF0001930F800F9017808790421002616031935
:101B00002612A616261A261CA612A61E9A2D0A30E2
:101B1000D800D90181319521F803780A0319F90316
:101B2000210026108D3120008C190C1E992D2100CA
:101B300026147B2D22008E011930F800F901780857
:101B400079042100A6170319A6132714A61B261C27
:101B50002710271C712D0A30D800D9018131952119
:101B6000F803780A0319F903210026108D312000AB
:101B70008C190C1EBD2D210026149F2D22008E01D4
:101B8000210026148E31261CCE2E22000D138D121C
:101B90008D172100A6140130A40022008E002030F1
:101BA0002000EF004E30F00021002615A611A00104
:101BB000210027152618A61C27118D31271DC22D9F
:101BC000F801F901790820007002031DE92D780859
:101BD0006F020319F82D031CF82DF80A0319F90AEE
:101BE00020000C30A0008D31A00BF42D0000E22D60
:101BF0002100261DFF2D0310A40D8E31012E031090
:101C0000A40C240822008E00813021002405A500A8
:101C100025088E310319752EF801F901261D372E7E
:101C2000790820007002031D172E78086F0221002A
:101C3000A71203191D2E0318A7162713A71E252E5A
:101C400020000C1E252E210027172100271F332ED0
:101C5000F80A0319F90A20000C30A0008E31A00BFD
:101C60002F2E0000102E823129228E315C2E790811
:101C700020007002031D3E2E78086F022100A7137A
:101C80000319442E0318A7172810A71F4C2E200055
:101C90008C1D4C2E210028142100281C5A2EF80AD5
:101CA0000319F90A20000C30A0008E31A00B562E2B
:101CB0000000372E823112228E312100261D622E25
:101CC0002611632E2615780820006F02A0007908DF
:101CD00070022004031D6F2E2100A610712E933177
:101CE00075232100A6158E31922E20008C1D7B2E8F
:101CF0002100A8117D2E2100A81520000C1E832E86
:101D000021002812852E21002816A812A81D281AA5
:101D1000A816A81E912E82313522933175232100F9
:101D2000A610A6118E31A61CB62EA61DB22E22001C
:101D30000D172100A00A073020007002031DA22EFB
:101D4000D0306F020319AE2E031CAE2E0730F00206
:101D5000D030EF02031CF0038D31D82D2100261066
:101D60008D31D82D22000D138D31D82D22000D1369
:101D70008D168D138231352282316722FE007E0856
:101D80008E310319BC2E7E03031DC82E21002610A0
:101D900093317523823135228D31D82D8231352210
:101DA00022000D138D128D130730200070028E312A
:101DB000031DDC2ED0306F020319ED2E031CED2E17
:101DC00003102100200DA5000310A50D0310A50D83
:101DD0002508843137248E31EF2E8431D22482318C
:101DE000352222008E010800823135228531B52549
:101DF0001830FA0022008E008D1721002614A61438
:101E000026118F312100261CB22F82316722FE005D
:101E100003307E028F31031D102F21002610872FE3
:101E200002307E02031D4D2FFF30FA0001302100E9
:101E3000A0007A0822008E002100A40120000C1EC0
:101E4000242F2100A612262F2100A61619302402C5
:101E5000261303192D2F031C2617A617A61A261FB3
:101E6000A613A61F3C2F1430D800D901813195212B
:101E70002100A40A8F311E2F19302402031D472F81
:101E800022000D1705302100A4002615872FA61C5F
:101E90004B2FA6104C2FA614872F7E03031D872FD0
:101EA0001830FA002100A0017A0822008E002100DB
:101EB000A40120008C1D5F2F2100A711612F21009C
:101EC000A7151930240227120319682F031C27169F
:101ED000A716A719271EA712A71E772F1430D80000
:101EE000D901813195212100A40A8F31592F193050
:101EF0002402031D822F22000D1705302100A400AB
:101F00002615872FA61C862FA610872FA614210022
:101F1000261DA82F87311F278F3120002018932FCF
:101F200021002810952F210028142818982F8A2F77
:101F300010302004A5005410A61854142508D00011
:101F4000200052088731B1272100261193317523D3
:101F5000210024088F310319AF2FA403012F220081
:101F60000D13012F0800823135228531BB25FF304A
:101F7000FE002100A401AA1022008E018D178231DB
:101F800067222100A50003302502903103193F2864
:101F90008531D1258F3120002018D12F2100AA11A1
:101FA000D32F2100AA159031AA1D3928933175230A
:101FB0008531D625FA0021002A1054182A14500819
:101FC000A0007A082000520221002A1203192A16C2
:101FD0007A08AA16031DAA122A132A1EAA1A2A1759
:101FE000F0302005A60010302602AA130319AA1704
:101FF0002B142A1BAA1F2B1090312B1C3928AB1035
:102000002A1C0528AA1C06280728AA18AB147A0837
:102010007E022B11031D2B15AB11AB1C2B19AB151D
:10202000200824022B12031D2B16AB12AB1D2B1AFA
:10203000AB16AB1E3928AA102A18AA147A08FE007B
:102040002008A4000F302005A6002608031D2C2818
:10205000183022008E002F28FF3022008E000D172E
:102060002C302100D8000130D90081319521220087
:102070000D13823167222100A5008F31C32F8531D6
:10208000B52D8231352222000D138D12183020001B
:10209000EF0078148C190C1E78109031781C77287A
:1020A0006F0822008E003230F7007708F814031909
:1020B000F81078152000F8188C1D7811F81578198B
:1020C0000C1EF811F81D6D280A302100D800D90126
:1020D00081319521F7039031552818306F02031D87
:1020E0007428FF30EF0049281830EF00492881316B
:1020F000E721F81220002018F8169031F81E8428E5
:102100008F31B327903186288E31F42682313522E3
:1021100022000D138D128D138E010800823135229D
:102120002100C1144111C11122008E010D138D1225
:102130008D1321004112B4010130BB009131C11C4B
:102140002529A6016F3084008501260884078001B7
:10215000A60A053026029031031DA228A6010530EB
:1021600026020319DD280318DD2881311C212100F6
:10217000BE0007303E05BF003F0AA400FE0141102B
:1021800005307E0290310319D2280318D2286F300F
:10219000840085017E088407000824020319411485
:1021A000FE0AC0284118AF286F3084008501260838
:1021B000840724088000A60AAF28A501A6016F3075
:1021C00084008501260884070003BE00FF0001305B
:1021D000BC007F08EE280310BC0DFF03031DEB2895
:1021E0003C08A504A60A05302602031DDF282508A1
:1021F00022008E00C8302100BA003A08C215031927
:10220000C21142129131C21D0A2920008C1D0A29D7
:10221000210042162100C212421E132920000C1E6A
:1022200013292100C2162100C21E1F290A30D8001E
:10223000D901813195212100BA039031FD283A0856
:10224000C114031DC11090319E2882313522853181
:10225000BB2522008D172100C1149331C11C2E2BE8
:102260001430D800D901813195218531D1259131A2
:10227000200020183E292100C21340292100C21746
:10228000C21FCD29933175232100250822008E001D
:102290008531D6252100AC005008AD002C08200067
:1022A00052022100431003194314F0302D05BE00E3
:1022B00020303E02C3100319C31443154318C31C36
:1022C00043119131431DCD2922000D170F302100FC
:1022D000AD052D08BD002D03BE00FF000130AD008F
:1022E0007F0875290310AD0DFF03031D72292D0909
:1022F000BE00A505250822008E0021002508031D2B
:1023000087292030AE00C1156430B80089292130FA
:10231000AE00CD013D088331D623FA302100D8002C
:10232000D9018131952121003D088331D623FA302E
:102330002100D800D901813195212100CD0A033037
:102340004D029131031D8A2922000D138531B525D7
:1023500087311F27913120002018B1292100C31295
:10236000B3292100C316C31AB629A82954102E0870
:10237000D000200052088731B12787312D279131B5
:1023800020002018C6292100C313C8292100C31723
:10239000C31FCB29BD298531BB258231672221008E
:1023A000AA0003302A029131031DD929C1109231AC
:1023B000782A02302A029231031D2A2A933175238A
:1023C00022008E0121003B08833115232100BA0130
:1023D000913120000C1EEF2921004411F129210028
:1023E000441519303A02C4110319F829031CC41505
:1023F00044164419C41D44129231441E082A143054
:10240000D800D901813195212100BA0A9131E829FA
:1024100019303A02031D0E2A4116252A08303B02C4
:1024200044130319152A031C44173408C41703194D
:10243000C4134514441BC41F45104518BB0A220091
:102440008E0121003B088331152332302100B40076
:102450009231782A2A03031D782A93317523933108
:10246000752322008E0121003B08833115232100B2
:10247000BA01923120008C1D402A21004511422AC8
:102480002100451519303A02C5110319492A031CC8
:10249000C51545164519C51D4512451E582A143047
:1024A000D800D901813195212100BA0A9231392A07
:1024B00019303A02031D5E2A4116752A01303B028B
:1024C00045130319652A031845173408C51703195E
:1024D000C5134614451BC51F46104618BB032200F2
:1024E0008E0121003B088331152332302100B400D6
:1024F000B0019331411E152B7523203021003B0480
:10250000AE0022000D178D16053021003002C610D6
:10251000923103198D2A031CC6144615411AC61C94
:1025200046119331461D0A2B8531B52587311F276A
:102530009231200020189F2A2100C611A12A2100D3
:10254000C615C619A42A962A54102E08D0002000B9
:1025500052088731B12787312D279231200020186A
:10256000B42A2100C612B62A2100C616C61EB92AF0
:10257000AB2A8531BB252100B201643032024613FB
:1025800092310319C52A031C4617C617411A461F64
:10259000C6139331C61F072B1430D800D9018131DF
:1025A00095218531D125923120002018DA2A210089
:1025B0004710DC2A210047149331471C042B853136
:1025C000D6252100AC005008AD002C082000520296
:1025D0002100C7100319C714F0302D05BE002030AC
:1025E0003E02471103194715C715C718471DC711E4
:1025F0009331C71D042B41120F302D05BE003E083C
:10260000031D042B4115C110B20A9231BD2AB00A34
:102610009231842A411E122B22000D138D162100A7
:102620004112152B22000D178D12210034080319B9
:102630001B2BB403202B250822008E000D138D12B6
:1026400091312100C11D2D293808933103192B2BFD
:10265000B80391312D29C11091312D298531B5252E
:1026600093312100411D3B2B8431D22422000D17D0
:102670008D129331452B22008E010D138D160230E1
:102680002100CE00CF018131B921823135222200D3
:102690000D138D128D138E01080022008E010D1373
:1026A0008D128D138531B5252700931113129215C4
:1026B00012168B156300933175238231352A42142B
:1026C0002700931D131A662B200042102000C2140D
:1026D00042188B1DC2108731C21CC92F27009311CD
:1026E0001312921112128B11C92F2000CE01CF01AB
:1026F000D001D101080020007F30A0003D30A100B2
:102700002930A2009331A20B832B9331A10B802B94
:102710009331A00B7E2B94310E2CEF0022000D176D
:102720008D168E017A1420006F08031D992B01303D
:10273000EF008231352294317A1C052C20006F087D
:1027400022008E0082316722F70002307702933137
:10275000031DD52BF80120000C1EB02BFA11B12B54
:10276000FA15193078027A120319B82B031C7A165D
:10277000FA16FA197A1EFA12FA1EC72B1430210023
:10278000D800D90181319521F80A9331AB2B19304A
:102790007802031DCD2B7A109B2BFE306F0203199C
:1027A000D42B0318D42BEF0A9B2B7703031D9B2BF1
:1027B000F80120008C1DDE2BFB10DF2BFB141930E1
:1027C00078027B110319E62B031C7B15FB15FB1804
:1027D0007B1DFB11FB1DF52B14302100D800D90106
:1027E00081319521F80A9331D92B19307802031DD4
:1027F000FB2B7A109B2B01306F0294310319032CB1
:10280000031C032CEF0393319B2B22000D138D121D
:102810008E018231352220006F0808008231AA2201
:102820008531C22587319E2722008D170D178D1601
:10283000FF308E0001302100CE00CF018131B9215F
:1028400022008E018D130D138D122000EF01F00177
:1028500081311E212000D200520A9431031D372CF1
:102860000130D200EF01F001520881313221823172
:1028700067222000EA0003306A029431031D4A2CCB
:10288000520893318D232000D200EF01F00152084D
:10289000813132212000E90185314D250A302100A6
:1028A000D800D90181319521200069089431031D98
:1028B0005F2C88314E202000E90094314E2C6903B2
:1028C000031D682C8831FA202000E9019431AC2CDA
:1028D00002306902031D722C893142212000E90176
:1028E0009431AC2C03306902031D7C2C8931BC214E
:1028F0002000E9019431AC2C04306902031D862CC0
:102900008A3152222000E9019431AC2C0530690251
:10291000031D902C8C314A242000E9019431AC2C09
:1029200006306902031D9A2C8D316B252000E901C8
:102930009431AC2C07306902031DA42C9031412046
:102940002000E9019431AC2C08306902031DAC2C45
:0C29500090318E202000E90194314E2CC3
:020000040001F9
:02000E00840F5D
:02001000FF1ED1
:00000001FF
