:020000040000FA
:0400000080315728CC
:0800080080314C288207E83426
:10001000033458340234903401342C34013418340D
:100020000134F03400342030B6000310AC0DAD0DB7
:10003000AE0DAF0D0310A40DA50DA60DA70D031C4D
:1000400029282808AC072908AD3D2A08AE3D2B0811
:10005000AF3DB60B152808001030B600A601A70169
:100060000310AA0DAB0D0310A40DA50DA60DA70D31
:1000700027082902031D3E282608280203194228C2
:10008000031849282908A7022808A602031CA70369
:100090002A14B60B3028080020002008B0002108E0
:1000A000B1002208B2002308B30093313A2B183074
:1000B000BA00D230BB002230BC00BD01E530BE002A
:1000C0005530BF009A30C0001530C10081315F2922
:1000D00020003A08A4003B08A5003C08A6003D0803
:1000E000A700CD30A8000D30A9000130AA00AB0157
:1000F000132020002C082100D20020002D08210010
:10010000D30020002E082100D40020002F08210059
:10011000D5007B3052072000A00000302100533D65
:100120002000A10000302100543D2000A20000303A
:100130002100553D2000A3002008BA002108BB0083
:100140002208BC002308BD0040082100D500200083
:100150003F082100D40020003E082100D300D20136
:100160000530FF000310D30DD40DD50D8031FF0BEA
:10017000B22852082000BE06210053082000BF0606
:10018000210054082000C006210055082000C106A7
:1001900040082100D200200041082100D300D401F2
:1001A000D5010310D30CD20C52082000BE0621004A
:1001B00053082000BF06210054082000C00621007B
:1001C00055082000C10603103E0D2100D20020007A
:1001D0003F0D2100D3002000400D2100D40020005D
:1001E000410D2100D5000430FF000310D20DD30DC6
:1001F000D40DD50DFF0BF52852082000BE062100B6
:1002000053082000BF06210054082000C00621002A
:1002100055082000C1063A083E072100D200200000
:100220003B083F3D2100D30052082000A0002100E0
:1002300053082000A1000800803168286F08FA00E8
:100240007008FB00FC01FD012300951C28292429CE
:100250007A0891007B089200151395131514130862
:10026000F8000800F8006F082100A00020007008C6
:100270002100A100A201A3012300951C40293C29D3
:100280002100200823009100210021082300920072
:10029000151395137808930015157A108B1B7A1493
:1002A0008B1355309600AA3096009514000000007C
:1002B0007A185C298B135D298B171511080087307C
:1002C0002100190578389900FC3099053F30240049
:1002D0008C00FF308D00FF308E002100951323002D
:1002E0008C018D018E0121009D019E0104302200B0
:1002F0009100920104309300940121000E108E10A1
:100300000E118E110E128E120E138E138D130D13ED
:100310008D128C150C168C160C150D122000CE01AA
:10032000CF01D001D1019331562B5A08DC005B0874
:10033000DD00DE01DF01AD292000A630A00006307F
:10034000A1008131A10BA2298131A00B9F290000BE
:1003500000002100DE0A0319DF0A5E085C022000AB
:10036000A00021005F085D0220002004031D9C29DD
:1003700008005008D6005108D700D801D901D62965
:1003800020003030A000F830A1006E30A200813192
:10039000A20BC8298131A10BC5298131A00BC3292A
:1003A000000000002100D80A0319D90A5808560293
:1003B0002000A00021005908570220002004031D3E
:1003C000C029080032302100DA00DB019521933189
:1003D000502B21003D1020008C19F529E22181319C
:1003E00020008C19F52921003D1421003D18FB291E
:1003F0002000201008002000201408003D10823149
:1004000020000C1A0B2A8131E221823120000C1AC3
:100410000B2A21003D1421003D18112A2000201034
:10042000080020002014080020008C19182A142A23
:100430008131E221823120008C191F2A1A2A0800FA
:100440000C1E232A202A8131E221823120000C1E39
:100450002A2A252A080020000C1A2F2A2B2A81314B
:10046000E221823120000C1A362A312A08002000AD
:100470008C1D3D2A210058103F2A210058142000CD
:100480000C1E452A2100D810472A2100D8145811E3
:10049000581CD8185815581D4E2A372A8131E22188
:1004A000823120008C1D572A2100D811592A2100A1
:1004B000D81520000C1E5F2A21005812612A210045
:1004C0005816D812D81D581AD816D81E682A502A7D
:1004D00008002100D00120008C19872A8131E221F7
:1004E000823120008C19872A0C1A842A8131E2215A
:1004F000823120000C1A802A03302100D000872A84
:1005000001302100D000872A01302100D0002000D6
:100510000C1AA32A8131E221823120000C1AA32A6D
:100520008C19A02A8131E221823120008C199C2A69
:1005300003302100D000A32A02302100D000A32ADA
:1005400002302100D00021005008080020001C11BA
:10055000080020001C150800A622200091106B1036
:1005600087309C05FC301C0502389C00F9309B004C
:10057000210091140B178B178231A92AA622200083
:1005800091106B109A01210032082000D300210045
:1005900033082000D400D501D6018231A92AA62231
:1005A000200055082100B200200056082100B300A9
:1005B0008231A922210032082000A0002100330846
:1005C0002000A10008008331911C0E2B9110D50A48
:1005D0000319D60A530854048231031DF12A6B14FF
:1005E000F52AD303530A0319D403CE0A0319CF0AF9
:1005F0000319D00A0319D10AE0304E02A00093304B
:100600004F02A00404305002200451048331031D22
:100610000E2BCE01CF01D001D10101003008A00086
:100620003108A1003208A2003308A300090021000C
:10063000D0005003031D242B013020000E042100A4
:10064000D20022008E00080002305002031D302B21
:10065000023020000E042100D20022008E0008008B
:1006600003305002031D3C2B043020000E042100F7
:10067000D20022008E00080004305002031D482BD7
:10068000083020000E042100D20022008E00080055
:1006900005305002031D542B103020000E042100A1
:1006A000D20022008E00080006305002031D602B8D
:1006B000203020000E042100D20022008E0008000D
:1006C00007305002031D6C2B403020000E04210027
:1006D000D20022008E00080008305002031D772B44
:1006E000803020000E042100D20022008E0008007D
:1006F000BD003D03031D842BFE3020000E052100AC
:10070000BE0022008E00080002303D02031D902B27
:10071000FD3020000E052100BE0022008E000800E2
:1007200003303D02031D9C2BFB3020000E052100F1
:10073000BE0022008E00080004303D02031DA82BDD
:10074000F73020000E052100BE0022008E000800B8
:1007500005303D02031DB42BEF3020000E052100B3
:10076000BE0022008E00080006303D02031DC02B93
:10077000DF3020000E052100BE0022008E000800A0
:1007800007303D02031DCC2BBF3020000E05210099
:10079000BE0022008E00080008303D02031DD72B4A
:1007A0007F3020000E052100BE0022008E000800D0
:1007B000D0005003031DE42B013020000E06210061
:1007C000D20022008E00080002305002031DF02BE0
:1007D000023020000E062100D20022008E00080008
:1007E00003305002031DFC2B043020000E062100B4
:1007F000D20022008E000800043050028431031D14
:10080000092C083020000E062100D20022008E00A4
:10081000080005305002031D152C103020000E0674
:100820002100D20022008E00080006305002031D75
:10083000212C203020000E062100D20022008E0044
:10084000080007305002031D2D2C403020000E06FA
:100850002100D20022008E00080008305002031D43
:10086000382C803020000E062100D20022008E009D
:100870000800BD0022008E0121003D08031D432C0D
:100880000130BD004B2C08303D0203194B2C031CDA
:100890004B2C0830BD0082313722210049118431B0
:1008A00020008C190C1E562C210049152100491DD1
:1008B000C92C3D08CB00CC018E2C031020000E0D5E
:1008C0002100C00001304004C10022008E00210040
:1008D000BE0196303E02C9110319702C031CC915C4
:1008E0004912C91D782C20008C1D782C2100491636
:1008F0002100C912491E812C20000C1E812C2100D0
:10090000C9162100C91E8D2C0130DA00DB018131AE
:1009100095212100BE0A8431692CCC0A4C084B0277
:10092000031D5D2C3D08CD00CE01C42C031020001A
:100930000E0C2100C00022008E002100BE01963066
:100940003E02C9130319A62C031CC9174A10C91F5C
:10095000AE2C20008C1DAE2C21004A142100CA10A0
:100960004A1CB72C20000C1EB72C2100CA142100F1
:10097000CA1CC32C0130DA00DB0181319521210032
:10098000BE0A84319F2CCE0A4E084D02031D962CC0
:100990004D2C8231372222008E01080022008E0168
:1009A0002100D00156148231372285312100561C96
:1009B000452D50088431031DE52C183022008E008F
:1009C00001302100D00085311C2D5003031DF02C77
:1009D0003C3022008E0002302100D00085311C2DD9
:1009E00002305002031DFC2C7E3022008E000330AA
:1009F0002100D00085311C2D033050028531031DAC
:100A0000082DFF3022008E0004302100D0001C2D64
:100A100004305002031D132D7E3022008E0005305D
:100A20002100D0001C2D05305002031D1C2D3C3030
:100A300022008E002100D0011430D2005208D617B7
:100A40000319D6135710D61F2A2D20000C1E2A2D4D
:100A5000210057142100D710571C332D20008C1D66
:100A6000332D2100D7142100D71C3F2D0A30DA0086
:100A7000DB01813195212100D20385311E2D5208E1
:100A80005614031D56108431D52C82313722220092
:100A90008E01080022008E012000EF01F00182315A
:100AA000372221002010853120008C190C1E5A2D70
:100AB00021002014013020007002031D612D2C3014
:100AC0006F022100A0100319672D031CA01420152C
:100AD0002018A01C2011201D9C2D81311C21FA0002
:100AE00022008E002000EF0A0319F00AF8011430EA
:100AF00078022100A01185310319802D031CA01557
:100B00002012A01D882D20008C1D882D210020166C
:100B10002100A012201E912D20000C1E912D2100DD
:100B2000A0162100A01E512DF80A0A30DA00DB01C0
:100B3000813195218531772D9331502382313722B0
:100B400022008E0108002000DD011810EB121110A8
:100B50006B126B1AAE2D21001513B02D2100151745
:100B60008B1008000B1220006B1122000D120800E0
:100B700022000D16A32520006B110B160800A325DB
:100B80008531B2253F3020009805CF301805203838
:100B90009800210011140B178B170800200020105B
:100BA0006B19201408002000EB18D92D21005610D5
:100BB000DB2D2100561420005F082100D00020000A
:100BC00060082100D20020006B11210050080800AD
:100BD0002000EB1EEF2DFF30A000A100080016083A
:100BE000A0001708A100080096019701EB12111050
:100BF0001814080082312000111CE32A111018106B
:100C0000EB168B14E32A20004A148B180B1E4A1093
:100C100085314A1CFA2D8B1086316B1E112E6B12FA
:100C2000122E6B166B1A172E21001513192E210088
:100C300015178531E82520002008DB002108DC009D
:100C40008531F42520005D088631031D2B2E0130EF
:100C5000DD008531FA2D5D03031D502E0B305C0243
:100C6000031D342EB8305B024A12031D03184A16C6
:100C700013305C02031D3E2E88305B02CA12031D36
:100C8000031CCA164A174A1ACA1E4A134A1F4C2E78
:100C90000230DD008531FA2D8531A3258531FA2D0D
:100CA00002305D02031D7C2E05305C02031D5A2EAE
:100CB000DC305B024B10031D03184B1409305C023F
:100CC000031D642EC4305B02CB10031D031CCB1428
:100CD0004B154B18CB1C4B114B1D782EEB15D70128
:100CE000D801D901DA01DE010330DD008531FA2DAA
:100CF0008531A3258531FA2D03305D028531031D31
:100D0000FA2D01305C028631031D882E77305B029C
:100D10004B12031D03184B1602305C02031D922E6A
:100D200071305B02CB12031D031CCB164B174B1A01
:100D3000CB1E4B134B1FAA2EEB1DA82EDE0A031051
:100D4000D70DD80DD90DDA0D6B1E5714EB11D02E1F
:100D5000EB15D02E02305C02031DB02EEE305B028C
:100D60004C10031D03184C1404305C02031DBA2EF2
:100D7000E2305B02CC10031D031CCC144C154C1844
:100D8000CC1C4C114C1DCE2EDE0A0310D70DD80DF5
:100D9000D90DDA0D6B1AD02E5714D02E8531A3251C
:100DA000133020005E028731031D1A2FC201C301D8
:100DB00004305905C400C5014208430444044504F5
:100DC000CC160319CC1201305705C600C701C80163
:100DD000C90146084704480449044C17031D4C1335
:100DE000CC17CC1A4C1FCC13CC1F162F0310DA0CC7
:100DF000D90CD80CD70CC201C30101305905C4006D
:100E0000C5014208430444044504EB140319EB10E4
:100E1000D901DA015808A0005908A1005A08A20017
:100E2000A3012008DF005708E0006B158531A325DA
:100E30008531FA2D8531FA2D2000670821005014E4
:100E4000031D50105018272F2000201008002000EC
:100E500020140800200067082100501403195010C6
:100E60000530200067022100D010031DD01450155A
:100E70005018D01C50115019402F2000201008008D
:100E800020002014080021008C12080021008C167C
:100E90000800462728001E1187309E05FC309E055D
:100EA00068309D00083025009E003F309A05F030E4
:100EB0001A050E389A0022001E14CF3025009A051C
:100EC0003430980028001E15080028001711462706
:100ED0002000E70108006B1F732FE1010330E200DF
:100EE000E301E401782FE1010230E200E301E401D3
:100EF0006508E1046308E4006208E3006108E200B9
:100F0000E1016608E1046308E4006208E3006108A7
:100F1000E200E1010630FF000310E20DE30DE40DF5
:100F2000FF0B8C2F0830E800EB170130E70028009A
:100F3000950117150800652720006B139310873063
:100F40002800170538389700FC309705F9309600CF
:100F5000210093140B178B178731492F2100D000E4
:100F600020006708031DC52F21005618BA2F200046
:100F70006B13BC2F20006B17210050082000E500E8
:100F8000210052082000E6006B2F08008631200067
:100F9000931C032E931067088731031DD12F8631D0
:100FA000032E6703031DE02F43272000E803680892
:100FB0008631031D032E0430E8000230E700032EC3
:100FC00002306702031DF12F46272000E80368085E
:100FD0008631031D032E1330E800EB170330E700C2
:100FE000032E033067028831031D3028EB1F0E28C3
:100FF000C201C301C40180306405C5004208430436
:1010000044044504031908288731432788310A28F6
:10101000873146272000EB138631032EC201C3011E
:10102000C40180306405C5004208430444044504FB
:1010300003191E2887314627883120288731432706
:101040002000EB170310E10DE20DE30DE40DE803C2
:1010500068088831031D2E280430E7008631032EEE
:1010600004306702031D3D28873146279630200053
:10107000E8000530E7008631032E05306702031DC6
:101080004928E8036808031D492887316527863108
:10109000032E8631032EEF010130F70021002014CA
:1010A000013022008E002100201CF2280830770237
:1010B0002100A01003195E28031CA0142015A018FD
:1010C000201C2011201D9D28F8013C3078022100B1
:1010D000A01103196D28031CA0152012A01D75284E
:1010E00020008C1D7528210020162100A012201E32
:1010F0007E2820000C1E7E282100A0162100A01EA4
:1011000089280A30DA00DB0181319521F80A88311B
:101110006528201320008C190C1E90282100201710
:101120002100201F9B28031020000E0DFA00220032
:101130008E00F70A562820105628F703770821005A
:10114000A0170319A0132114A01B201C2110211C7F
:10115000E228F8013C3078022100A1100319B228DE
:10116000031CA1142111A11CBA2820008C1DBA282F
:10117000210021152100A111211DC32820000C1ED2
:10118000C3282100A1152100A11DCE280A30DA00B4
:10119000DB0181319521F80A8831AA28211220002B
:1011A0008C190C1ED528210021162100211EE028B3
:1011B000031020000E0CFA0022008E00F7039E2878
:1011C00020109E28F70A2000EF0A0D306F02031D41
:1011D000532801300E05F7009331502321002010D1
:1011E000883153288231372222008E017708080087
:1011F000EF01F00122008E01823137227A142000A3
:101200008C190C1E7A1089317A1C3E2922008D1708
:1012100001302100DA00DB018131952122008D139C
:10122000F80164307802FA10893103191929031C76
:10123000FA147A152000FA188C1D7A11FA157A1909
:101240000C1EFA118831FA1DFE28F80AEF0A03195C
:10125000F00A50306F02A00046307002200489313D
:10126000031D3629EF01F001933128230A302100B4
:10127000DA00DB0181319521893111298231372A48
:101280000130F70022008E012100201020008C196F
:101290000C1E4C29210020142100201CB3290130F0
:1012A0002000EF007708F8002100A01020008C1922
:1012B0000C1E5C292100A014083020006F022100C0
:1012C000201103196529031C2015A015A018201D45
:1012D000A011A01D85297808031975290130200067
:1012E0000E04FA0022008E00F80364302100DA00B8
:1012F000DB0181319521031020000E0DFA00220040
:101300008E002000EF0A893154297708F800210067
:10131000A01220008C190C1E8F292100A01678081D
:101320002100201703192013A017A01A201FA013B3
:10133000A01FA829F8036430DA00DB018131952170
:10134000031020000E0DFA0022008E00893187293B
:10135000083077020319B0290318B029F70A442985
:101360000130F70044298231372222008E01080023
:1013700022008E017A14FA1420008C190C1EFA1027
:101380008A31FA1C462A0130EF000430F7007A1542
:101390008C190C1E7A1108306F02FA118931031969
:1013A000D329031CFA157A167A19FA1D7A128A3192
:1013B0007A1E0F2A89317A1CF62977080319E62943
:1013C00001300E04F80022008E00F70332302100B5
:1013D000DA00DB0181319521031020000E0DF800A9
:1013E00022008E002000EF0A8931C72977080319EF
:1013F000FF2980300E04F80022008E00F7033230FF
:101400002100DA00DB0181319521031020000E0C50
:10141000F80022008E002000EF0A8931C72904302D
:10142000F700FA1720008C190C1EFA1377087B14AA
:1014300003197B10FB14FA1B7B1CFB10FB1C3F2ABF
:101440007A1C302A32302100DA00DB01813195210B
:10145000031020000E0DF80022008E008A313C2A75
:1014600032302100DA00DB018131952103102000A8
:101470000E0CF80022008E00F7038A31112A7A1C24
:10148000432A7A10442A7A148931BB2982313722BF
:1014900022008E01080021003414A601083021002A
:1014A000260234110319562A031C3415B4153418B6
:1014B000341DB4118B31B41DC72B0130D000D101C4
:1014C0008131B9212100B41422008E018D130D1336
:1014D0008D122100A60A2608BC00AC018A319F2A81
:1014E00081311C212100B00007303005B1006F3080
:1014F000840085012C088407310A80006F30840045
:1015000085012C088407000883311723F43021005B
:10151000DA000130DB00813195216F3084008501D4
:1015200021002C088407000883317823F43021003F
:10153000DA000130DB00813195212100AC0A2C0852
:101540003C028A31031D702A0130D000D101813163
:10155000B92122008D17013083311723013021007A
:10156000AD00AC012100B4163418B41CB4122C0820
:10157000260234138A310319BF2A03183417B4170B
:10158000B41A341FB4138B31B41FC02B8131FE2128
:101590008A3120002018CF2A21003510D12A2100BD
:1015A00035148B31351C432BAE018A3120000C1EC3
:1015B000DC2A2100B510DE2A2100B51419302E02D4
:1015C00035110319E52A031C3515B515B518351D58
:1015D000B511B51DF42A1430DA00DB0181319521F3
:1015E0002100AE0A8A31D52A19302E028B31031D13
:1015F0002C2B6F30840085012C08840700082D02F5
:10160000031D0F2BAC0A22000D1701302100D00062
:10161000D1018131B92122000D138B313B2B2200E6
:101620000D138D1682313722823169222100AA00E2
:101630002A088B310319142B02302A02031D232B95
:10164000A601B410242B341022008E018D128D13AC
:10165000823137228B313B2B2D08833178230830A0
:1016600021002D028B310319382B0318382BAD0ABA
:101670002D08833117238A312100341CB22A82318C
:101680002B228A31B22A8131E9218B3120002018A6
:101690004C2B2100B6104E2B2100B6148A31B61CFB
:1016A000B22AAE018B3120008C1D592B210036113E
:1016B0005B2B2100361519302E02B6110319622B4F
:1016C000031CB61536163619B61D3612361E712B8A
:1016D0001430DA00DB01813195212100AE0A8B3113
:1016E000522B19302E02031DA92B6F308400850167
:1016F0002C08840700082D02031D8C2BAC0A220045
:101700000D17F4302100DA000130DB008131952122
:1017100022000D138B31B82B22000D138D16823150
:101720003722823169222100AA002A088B3103194D
:10173000912B02302A02031DA02BA601B410A12B6D
:10174000341022008E018D128D13823137228B319D
:10175000B82B2D0883317823013021002D028B31E5
:101760000319B52B031CB52BAD032D0883311723AB
:101770008A312100341CB22A823114228A31B22AE1
:1017800022008E018D13823137228A314E2A083091
:101790002602031DCF2B8431CE248B31D22B260879
:1017A000843139248231372222000D138D128E01AB
:1017B00008008030B8000230B9008030BB00BC01A6
:1017C000BD0138082000A800210039082000A90028
:1017D000210032082000A400210033082000A500C9
:1017E00080312C2020002A082100BE0020002B0878
:1017F0002100BF003E083F048C310319072C3B0831
:10180000BC043908B3023808B202031CB303031046
:10181000B90CB80C0310BB0CBD0A07303D028B316C
:10182000031DE12B3C0822008E000800FF3022003F
:101830008E0001302100D000D1018131B921210079
:10184000B201031020000E0C2100B40022008E0013
:1018500001302100D000D1018131B9212100B20A2B
:10186000083032028C31031D212C0800FF30220089
:101870008E008D138D120D1321002E14A4018231C0
:1018800037228D3121002E1C282D8C3120008D1AFD
:101890004D2C8231202282312B2222008D120D13F9
:1018A0008E01F4302100DA000130DB008131952116
:1018B00003102100240DA600803106202000EF0037
:1018C000013021002607803106202000F0006F083B
:1018D0002100B200200070082100B3008B31D92311
:1018E00002302100D000D1018131B92122008E01C6
:1018F00080316820200020082100A6002000210857
:101900002100A70050302000A8004630A900210087
:1019100026082000A400210027082000A50080310F
:101920002C20200026082100A800200027082100E4
:10193000A900B8302807A0000B30293DA1002008DD
:1019400021042E1503192E11AE118C312E1DAD2C34
:1019500020000C1EAD2C2100AE152100AE1DC32CA5
:101960002000DE30A0000430A1008C31A10BB62C89
:101970008C31A00BB32C000000002100A003200A32
:101980000319A1039F2C200821040319CA2C162433
:101990008D311E2D22008D1720006F082100B2000E
:1019A000200070082100B3008231BE228C3120005B
:1019B0006B1CDD2C2100AE12DF2C2100AE162E1385
:1019C00020000C1EE62C2100AE1A2E1721002E1F1F
:1019D000EA2CD62C22008D138231CF222000200841
:1019E000F8002108F9008D316B1C0E2D22008D1698
:1019F000FF308E00210024088C31031DA4038231A6
:101A00003722823169222100A50025088D31031972
:101A1000012D2503031D1E2D2E101E2D22000D1736
:101A20002100A40A7808B2007908B3008B31D923C9
:101A300001302100D000D1018131B92106302100CF
:101A400024028D3103192E10823137228C31412C22
:101A500022000D138D128D13063021002402031D68
:101A6000352D8431CE248D31392D240AA6008431C0
:101A700039248231372222008E01080021002614E9
:101A800022008D13823137228D312100261C912DA9
:101A9000813022008E001930F800F90178087904AD
:101AA0002100261603192612A616261A261CA6128F
:101AB000A61E6D2D0A30DA00DB0181319521F80375
:101AC000780A0319F903210026108D3120008C19A2
:101AD0000C1E6C2D210026144E2D22008E01193073
:101AE000F800F901780879042100A6170319A61354
:101AF0002714A61B261C2710271C442D0A30DA00A9
:101B0000DB0181319521F803780A0319F9032100DB
:101B100026108D3120008C190C1E902D21002614CA
:101B2000722D22008E0121002614823137228E313F
:101B30002100261CC12E22000D138D128D172100AD
:101B4000A6140130A40022008E0020302000EF00F7
:101B50004E30F00021002615A611A0012100271506
:101B60002618A61C27118D31271D972D261DBB2D4C
:101B70000310A40DBD2D0310A40C240822008E0018
:101B8000F801F901803021002405A50025088E31D7
:101B90000319072E7908200070028D31031DD22D04
:101BA00078086F02210027120319D82D0318271671
:101BB000A712271EE02D20000C1EE02D2100A716E5
:101BC0002100A71EEE2DF80A0319F90A20000C3097
:101BD000A0008D31A00BEA2D0000CA2D82312B22EE
:101BE000780820006F02A0007908700220048E316E
:101BF000031D042E2100A6100830833178230730FE
:101C0000833117238E31822E2100A615822E0130BA
:101C10002405A50025080319492E79082000700223
:101C2000031D142E78086F022100281003191A2EA4
:101C300003182814A810281C222E20008C1D222EE8
:101C40002100A8142100A81C302EF80A0319F90A53
:101C500020000C30A0008E31A00B2C2E00000D2E89
:101C600082311422780820006F02A00079087002E7
:101C700020048E31031D462E2100A6100130833131
:101C800078230230833117238E31822E2100A6154E
:101C9000822E790820007002031D502E78086F02F2
:101CA0002100A8110319562E0318A8152812A81DE3
:101CB0005E2E20008C1D5E2E210028162100A81209
:101CC000281E672E20000C1E672E2100A81621005A
:101CD000A81E752EF80A0319F90A20000C30A0007E
:101CE0008E31A00B712E0000492E780820006F0263
:101CF000A0007908700220040319802E2100A6108C
:101D00002100A6112100A61CAB2EA61DA72E261D64
:101D10008B2E26118C2E261522000D172100A00ACD
:101D2000073020007002031D972ED0306F02031978
:101D3000A32E031CA32E0730F002D030EF02031CA9
:101D4000F0038D31AE2D210026108D31AE2D2200F5
:101D50000D138D31AE2D22000D138D168D13823192
:101D6000372282316922FE007E088E310319B12E9E
:101D70007E03031DBD2E21002610823137228D31B6
:101D8000AE2D22000D138D128D13823137220A30B1
:101D9000210020028E31031DD12E8431CE248E31BC
:101DA000D72E2008031DA003200884313924823156
:101DB000372222008E010800823137228531B22578
:101DC0001830FA0022008E008D1721002614A61468
:101DD00026118F312100261C9B2F82316922FE00A3
:101DE00003307E028E31031DF92E210026108F3123
:101DF000712F02307E028F31031D372FFF30FA0022
:101E000001302100A0007A0822008E002100A401E8
:101E100020000C1E0E2F2100A612102F2100A61646
:101E20001930240226130319172F031C2617A6178F
:101E3000A61A261FA613A61F262F1430DA00DB01D0
:101E4000813195212100A40A8F31082F19302402F5
:101E5000031D312F22000D1705302100A400261587
:101E6000712FA61C352FA610362FA614712F7E03B6
:101E7000031D712F1830FA002100A0017A082200FA
:101E80008E002100A40120008C1D492F2100A711E4
:101E90004B2F2100A7151930240227120319522FA6
:101EA000031C2716A716A719271EA712A71E612F06
:101EB0001430DA00DB01813195212100A40A8F3131
:101EC000432F19302402031D6C2F22000D170530FB
:101ED0002100A4002615712FA61C702FA610712FAB
:101EE000A6142100261D902F87311C278F3120003A
:101EF00020187D2F210028107F2F2100281428185A
:101F0000822F742F10302004A5005610A6185614E6
:101F10002508D200200052088731AE272100261163
:101F200024088F310319972FA4038E31E92E220044
:101F30000D138E31E92E0800823137228531B82504
:101F4000FF30FE002100A401AA1022008E018D178F
:101F5000823169222100A500033025029031031946
:101F60002A288531CE258F3120002018BA2F210054
:101F7000AA11BC2F2100AA159031AA1D2428933143
:101F800050238531D325FA0021002A1056182A142F
:101F90005208A0007A082000520221002A120319D8
:101FA0002A167A08AA16031DAA122A132A1EAA1A8A
:101FB0002A17F0302005A60010302602AA130319B4
:101FC000AA172B142A1BAA1F2B1090312B1C242874
:101FD000AB108F312A1CEF2FAA1CF02FF12FAA185B
:101FE000AB147A087E022B11031D2B15AB11AB1C11
:101FF0002B19AB15200824022B12031D2B16AB1234
:10200000AB1D2B1AAB169031AB1E2428AA102A1830
:10201000AA147A08FE002008A4000F302005A600AC
:102020002608031D1728183022008E001A28FF30BA
:1020300022008E000D172C302100DA000130DB0069
:102040008131952122000D13823169222100A500E2
:102050008F31AC2F8531B22D8231372222000D1302
:102060008D1218302000EF0078148C190C1E781097
:102070009031781C62286F0822008E003230F70001
:102080007708F8140319F81078152000F8188C1D3B
:102090007811F81578190C1EF811F81D58280A3017
:1020A0002100DA00DB0181319521F70390314028CE
:1020B00018306F02031D5F28FF30EF0034281830FE
:1020C000EF0034288131E921F81220002018F81699
:1020D0009031F81E6F288F319C27903171288E31F6
:1020E000DC268231372222000D138D128D138E01D2
:1020F0000800823137222100C2144211C21122008D
:102100008E010D138D128D1321004212B401013086
:10211000BB009131C21C1029A6016F3084008501DB
:10212000260884078001A60A053026029031031D87
:102130008D28A601053026020319C8280318C828CF
:1021400081311C212100BE0007303E05BF003F0A3F
:10215000A400FE01421005307E0290310319BD2813
:102160000318BD286F30840085017E0884070008AD
:10217000240203194214FE0AAB2842189A286F3031
:10218000840085012608840724088000A60A9A286E
:10219000A501A6016F30840085012608840700038D
:1021A000BE00FF000130BC007F08D9280310BC0D21
:1021B000FF03031DD6283C08A504A60A0530260205
:1021C000031DCA28250822008E00C8302100BA004D
:1021D0003A08C3150319C3114312C31DF428200084
:1021E0008C1DF428210043162100C312431EFD2834
:1021F00020000C1EFD282100C31691312100C31EB2
:102200000A290A30DA00DB01813195212100BA0365
:102210009031E8283A08C214031DC2109031892871
:10222000823137228531B82522008D172100C21452
:102230009331C21C092B1430DA00DB018131952166
:102240008531CE2591312000201829292100C31382
:102250002B292100C317C31FB529250822008E0092
:102260008531D3252100AC005208AD002C08200098
:1022700052022100441003194414F0302D05BE0011
:1022800020303E02C4100319C41444154418C41C61
:1022900044119131441DB52922000D170F30210042
:1022A000AD052D08BD002D03BE00FF000130AD00BF
:1022B0007F085D290310AD0DFF03031D5A292D0969
:1022C000BE00A505250822008E0021002508031D5B
:1022D0006F292030AE00C2156430B800712921305A
:1022E000AE00CF013D088331D823FA302100DA0057
:1022F000DB018131952121003D088331D823FA305B
:102300002100DA00DB01813195212100CF0A033061
:102310004F029131031D722922000D138531B22520
:1023200087311C2791312000201899292100C412DF
:102330009B292100C416C41A9E29902956102E08E4
:10234000D200200052088731AE2787312A279131E9
:1023500020002018AE292100C413B0292100C41781
:10236000C41FB329A5298531B825823169222100EE
:10237000AA0003302A029131031DC129C2109231F3
:102380005B2A02302A029231031D112A22008E019B
:1023900021003B08833117232100BA01913120002D
:1023A0000C1ED52921004511D729210045151930CA
:1023B0003A02C5110319DE29031CC5154516451936
:1023C000C51D4512451EED291430DA00DB018131AF
:1023D00095212100BA0A9131CE2919303A02031D04
:1023E000F429421692310C2A08303B024513031996
:1023F000FB29031C45173408C5170319C5134614D8
:10240000451BC51F461092314618BB0A22008E019B
:1024100021003B088331172332302100B400923170
:102420005B2A2A03031D5B2A22008E0121003B0840
:10243000833117232100BA01923120008C1D232AF9
:1024400021004611252A2100461519303A02C611ED
:1024500003192C2A031CC61546164619C61D46121A
:10246000461E3B2A1430DA00DB0181319521210020
:10247000BA0A92311C2A19303A02031D412A421627
:10248000582A01303B0246130319482A03184617FD
:102490003408C6170319C6134714461BC61F471036
:1024A0004718BB0322008E0121003B08833117230C
:1024B00032302100B400B0019231421EF02A2030A7
:1024C0003B04AE0022000D178D16053021003002AE
:1024D000C71003196D2A031CC7144715421AC71CDD
:1024E0004711471DE52A8531B22587311C279231D6
:1024F000200020187E2A2100C711802A2100C7153C
:10250000C719832A752A56102E08D20020005208B7
:102510008731AE2787312A27923120002018932A4D
:102520002100C712952A2100C716C71E982A8A2A99
:102530008531B8252100B20164303202471392314F
:102540000319A42A031C4717C717421A471FC713AA
:10255000C71FE32A1430DA00DB0181319521853170
:10256000CE25923120002018B82A21004810BA2A1E
:1025700021004814481CE12A8531D3252100AC00F4
:102580005208AD002C08200052022100C810031987
:10259000C814F0302D05BE0020303E02481103194A
:1025A0004815C815C818481DC8119231C81DE12A20
:1025B00042120F302D05BE003E08031DE12A4215D0
:1025C000C210B20A9C2AB00A652A421EED2A2200D5
:1025D0000D138D1621004212F02A22000D178D12C4
:1025E000210034080319F62AB403FB2A2508220027
:1025F0008E000D138D1291312100C21D182938084B
:1026000093310319062BB80391311829C210913167
:1026100018298531B22593312100421D162B8431B2
:10262000CE2422000D178D129331202B22008E0113
:102630000D138D1602302100D000D1018131B92156
:102640008231372222000D138D128D138E01080066
:1026500022008E010D138D128D138531B2252700B6
:1026600093111312921512168B1563009331502398
:102670008231372A42142700931D131A412B200060
:1026800042102000C21442188B1DC2108731C21C98
:10269000C62F270093111312921112128B11C62FFD
:1026A0002000CE01CF01D001D101080020007F30F1
:1026B000A0003D30A1002930A2009331A20B5E2B77
:1026C0009331A10B5B2B9331A00B592BE62BEF0021
:1026D00022000D178D168E017A1420006F08031D3D
:1026E000732B0130EF008231372293317A1CDD2BBE
:1026F00020006F0822008E0082316922F70002302C
:1027000077029331031DAF2BF80120000C1E8A2B9A
:10271000FA118B2BFA15193078027A120319922BC1
:10272000031C7A16FA16FA197A1EFA12FA1EA12B4F
:1027300014302100DA00DB0181319521F80A933150
:10274000852B19307802031DA72B7A10752BFE30CC
:102750006F020319AE2B0318AE2BEF0A752B77030C
:10276000031D752BF80120008C1DB82BFB10B92B15
:10277000FB14193078027B110319C02B031C7B1545
:10278000FB15FB187B1DFB11FB1DCF2B143021000B
:10279000DA00DB0181319521F80A9331B32B19302E
:1027A0007802031DD52B7A10752B01306F020319A7
:1027B000DC2B031CDC2BEF03752B22000D138D1279
:1027C0008E018231372220006F0808008231AC224E
:1027D0008531BF2587319B2722008D170D178D1658
:1027E000FF308E0001302100D000D1018131B921AC
:1027F00022008E018D130D138D122000EF01F001C8
:1028000081311E212000D200520A9431031D0F2C69
:102810000130D200EF01F0015208813132218231C2
:1028200069222000EA0003306A029431031D222C41
:102830005208933167232000D200EF01F0015208C3
:10284000813132212000E90185314A250A302100F9
:10285000DA00DB0181319521200069089431031DE4
:10286000372C88314B202000E9009431262C690355
:10287000031D402C8831F8202000E9019431842C7C
:1028800002306902031D4A2C893140212000E901F0
:102890009431842C03306902031D542C8931B821F2
:1028A0002000E9019431842C04306902031D5E2C60
:1028B0008A314B222000E9019431842C05306902D1
:1028C000031D682C8C3136242000E9019431842CBE
:1028D00006306902031D722C8D313E252000E9016E
:1028E0009431842C07306902031D7C2C90312C20FC
:1028F0002000E9019431842C08306902031D842CE6
:0C290000903179202000E9019431262C50
:020000040001F9
:02000E00840F5D
:02001000FF1ED1
:00000001FF
