:020000040000FA
:0400000080315728CC
:0800080080314C288207E83426
:10001000033458340234903401342C34013418340D
:100020000134F03400342030B6000310AC0DAD0DB7
:10003000AE0DAF0D0310A40DA50DA60DA70D031C4D
:1000400029282808AC072908AD3D2A08AE3D2B0811
:10005000AF3DB60B152808001030B600A601A70169
:100060000310AA0DAB0D0310A40DA50DA60DA70D31
:1000700027082902031D3E282608280203194228C2
:10008000031849282908A7022808A602031CA70369
:100090002A14B60B3028080020002008B0002108E0
:1000A000B1002208B2002308B30093315F2B18304F
:1000B000BA00D230BB002230BC00BD01E530BE002A
:1000C0005530BF009A30C0001530C10081315F2922
:1000D00020003A08A4003B08A5003C08A6003D0803
:1000E000A700CD30A8000D30A9000130AA00AB0157
:1000F000132020002C082100D20020002D08210010
:10010000D30020002E082100D40020002F08210059
:10011000D5007B3052072000A00000302100533D65
:100120002000A10000302100543D2000A20000303A
:100130002100553D2000A3002008BA002108BB0083
:100140002208BC002308BD0040082100D500200083
:100150003F082100D40020003E082100D300D20136
:100160000530FF000310D30DD40DD50D8031FF0BEA
:10017000B22852082000BE06210053082000BF0606
:10018000210054082000C006210055082000C106A7
:1001900040082100D200200041082100D300D401F2
:1001A000D5010310D30CD20C52082000BE0621004A
:1001B00053082000BF06210054082000C00621007B
:1001C00055082000C10603103E0D2100D20020007A
:1001D0003F0D2100D3002000400D2100D40020005D
:1001E000410D2100D5000430FF000310D20DD30DC6
:1001F000D40DD50DFF0BF52852082000BE062100B6
:1002000053082000BF06210054082000C00621002A
:1002100055082000C1063A083E072100D200200000
:100220003B083F3D2100D30052082000A0002100E0
:1002300053082000A1000800803168286F08FA00E8
:100240007008FB00FC01FD012300951C28292429CE
:100250007A0891007B089200151395131514130862
:10026000F8000800F8006F082100A00020007008C6
:100270002100A100A201A3012300951C40293C29D3
:100280002100200823009100210021082300920072
:10029000151395137808930015157A108B1B7A1493
:1002A0008B1355309600AA3096009514000000007C
:1002B0007A185C298B135D298B171511080087307C
:1002C0002100190578389900FC3099053F30240049
:1002D0008C00FF308D00FF308E002100951323002D
:1002E0008C018D018E0121009D019E0104302200B0
:1002F0009100920104309300940121000E108E10A1
:100300000E118E110E128E120E138E138D130D13ED
:100310008D128C150C168C160C150D122000CE01AA
:10032000CF01D001D10193317B2B5A08DC005B084F
:10033000DD00DE01DF01AD292000A630A00006307F
:10034000A1008131A10BA2298131A00B9F290000BE
:1003500000002100DE0A0319DF0A5E085C022000AB
:10036000A00021005F085D0220002004031D9C29DD
:1003700008005008D6005108D700D801D901D62965
:1003800020003030A000F830A1006E30A200813192
:10039000A20BC8298131A10BC5298131A00BC3292A
:1003A000000000002100D80A0319D90A5808560293
:1003B0002000A00021005908570220002004031D3E
:1003C000C029080032302100DA00DB019529210024
:1003D0003D1020008C19F329E221813120008C1975
:1003E000F32921003D1421003D18F9292000201097
:1003F00008002000201408003D10823120000C1A53
:10040000092A8131E221823120000C1A092A2100B7
:100410003D1421003D180F2A200020100800200064
:100420002014080020008C19162A122A8131E2219A
:10043000823120008C191D2A182A08000C1E212A3E
:100440001E2A8131E221823120000C1E282A232A13
:10045000080020000C1A2D2A292A8131E22182313C
:1004600020000C1A342A2F2A080020008C1D3B2A59
:10047000210058103D2A2100581420000C1E432A48
:100480002100D810452A2100D8145811581CD8181A
:100490005815581D4C2A352A8131E221823120001D
:1004A0008C1D552A2100D811572A2100D81520006B
:1004B0000C1E5D2A210058125F2A21005816D812FE
:1004C000D81D581AD816D81E662A4E2A08002100B0
:1004D000D00120008C19852A8131E221823120004F
:1004E0008C19852A0C1A822A8131E221823120005E
:1004F0000C1A7E2A03302100D000852A0130210009
:10050000D000852A01302100D00020000C1AA12A39
:100510008131E221823120000C1AA12A8C199E2AF5
:100520008131E221823120008C199A2A0330210086
:10053000D000A12A02302100D000A12A02302100DF
:10054000D00021005008080020001C1108002000E5
:100550001C150800A422200091106B1087309C0508
:10056000FC301C0502389C00F9309B0021009114DE
:100570000B178B178231A72AA422200091106B1031
:100580009A01210032082000D30021003308200006
:10059000D400D501D6018231A72AA4222000550813
:1005A0002100B200200056082100B3008231A722AA
:1005B000210032082000A000210033082000A10003
:1005C00008008331911C0C2B9110D50A0319D60A0F
:1005D000530854048231031DEF2A6B14F32AD3030A
:1005E000530A0319D403CE0A0319CF0A0319D00AF8
:1005F0000319D10AE0304E02A00093304F02A0044C
:1006000004305002200451048331031D0C2BCE0111
:10061000CF01D001D10101003008A0003108A100B4
:100620003208A2003308A30009002100D0005003C3
:10063000031D222B013020000E042100D2002200D5
:100640008E00080002305002031D2E2B02302000C5
:100650000E042100D20022008E0008000330500258
:10066000031D3A2B043020000E042100D20022008A
:100670008E00080004305002031D462B0830200075
:100680000E042100D20022008E0008000530500226
:10069000031D522B103020000E042100D200220036
:1006A0008E00080006305002031D5E2B2030200013
:1006B0000E042100D20022008E00080007305002F4
:1006C000031D6A2B403020000E042100D2002200BE
:1006D0008E00080008305002031D752B803020006A
:1006E0000E042100D20022008E000800BD003D0350
:1006F000031D822BFE3020000E052100BE002200CB
:100700008E00080002303D02031D8E2BFD302000BC
:100710000E052100BE0022008E00080003303D02BD
:10072000031D9A2BFB3020000E052100BE00220085
:100730008E00080004303D02031DA62BF730200078
:100740000E052100BE0022008E00080005303D028B
:10075000031DB22BEF3020000E052100BE00220049
:100760008E00080006303D02031DBE2BDF30200046
:100770000E052100BE0022008E00080007303D0259
:10078000031DCA2BBF3020000E052100BE00220031
:100790008E00080008303D02031DD52B7F3020005D
:1007A0000E052100BE0022008E000800D00050037C
:1007B000031DE22B013020000E062100D200220092
:1007C0008E00080002305002031DEE2B0230200084
:1007D0000E062100D20022008E00080003305002D5
:1007E000031DFA2B043020000E062100D200220047
:1007F0008E000800043050028431031D072C08309D
:1008000020000E062100D20022008E0008000530D4
:100810005002031D132C103020000E062100D200C0
:1008200022008E00080006305002031D1F2C2030CD
:1008300020000E062100D20022008E0008000730A2
:100840005002031D2B2C403020000E062100D20048
:1008500022008E00080008305002031D362C803024
:1008600020000E062100D20022008E000800BD00EC
:1008700022008E0121003D08031D412C0130BD00E6
:10088000492C08303D020319492C031C492C08301F
:10089000BD008231352221004911843120008C199C
:1008A0000C1E542C210049152100491DC72C3D0860
:1008B000CB00CC018C2C031020000E0D2100C000B9
:1008C00001304004C10022008E002100BE0196309C
:1008D0003E02C91103196E2C031CC9154912C91D0A
:1008E000762C20008C1D762C210049162100C9127F
:1008F000491E7F2C20000C1E7F2C2100C9162100D0
:10090000C91E8B2C0130DA00DB01813195212100D9
:10091000BE0A8431672CCC0A4C084B02031D5B2CA9
:100920003D08CD00CE01C22C031020000E0C21008A
:10093000C00022008E002100BE0196303E02C91385
:100940000319A42C031CC9174A10C91FAC2C200082
:100950008C1DAC2C21004A142100CA104A1CB52C55
:1009600020000C1EB52C2100CA142100CA1CC12C69
:100970000130DA00DB01813195212100BE0A84318A
:100980009D2CCE0A4E084D02031D942C4B2C823117
:10099000352222008E01080022008E012100D001A4
:1009A00056148231352285312100561C432D5008C2
:1009B0008431031DE32C183022008E000130210009
:1009C000D00085311A2D5003031DEE2C3C3022003F
:1009D0008E0002302100D00085311A2D02305002E5
:1009E000031DFA2C7E3022008E0003302100D0003F
:1009F00085311A2D033050028531031D062DFF303D
:100A000022008E0004302100D0001A2D0430500244
:100A1000031D112D7E3022008E0005302100D000F4
:100A20001A2D05305002031D1A2D3C3022008E0075
:100A30002100D0011430D2005208D6170319D61362
:100A40005710D61F282D20000C1E282D21005714CA
:100A50002100D710571C312D20008C1D312D210075
:100A6000D7142100D71C3D2D0A30DA00DB0181317B
:100A700095212100D20385311C2D52085614031DE7
:100A800056108431D32C8231352222008E01080089
:100A900022008E012000EF01F00182313522210079
:100AA0002010853120008C190C1E582D2100201497
:100AB000013020007002031D5F2D2C306F022100D9
:100AC000A0100319652D031CA01420152018A01CCC
:100AD0002011201D9A2D81311C21FA0022008E0048
:100AE0002000EF0A0319F00AF801143078022100FF
:100AF000A011853103197E2D031CA0152012A01D05
:100B0000862D20008C1D862D210020162100A0128C
:100B1000201E8F2D20000C1E8F2D2100A0162100DD
:100B2000A01E4F2DF80A0A30DA00DB018131952131
:100B30008531752D933175238231352222008E0146
:100B400008002000DD011810EB1211106B126B1A57
:100B5000AC2D21001513AE2D210015178B100800A8
:100B60000B1220006B1122000D12080022000D163E
:100B7000A12520006B110B160800A1258531B02599
:100B80003F3020009805CF3018052038980021000C
:100B900011140B178B170800200020106B1920145C
:100BA00008002000EB18D72D21005610D92D210068
:100BB000561420005F082100D000200060082100AA
:100BC000D20020006B112100500808002000EB1E0D
:100BD000ED2DFF30A000A10008001608A0001708A6
:100BE000A100080096019701EB12111018140800DB
:100BF00082312000111CE12A11101810EB168B1401
:100C0000E12A20004A148B180B1E4A1085314A1C19
:100C1000F82D8B1086316B1E0F2E6B12102E6B165B
:100C20006B1A152E21001513172E2100151785316B
:100C3000E62520002008DB002108DC008531F225B4
:100C400020005D088631031D292E0130DD0085312D
:100C5000F82D5D03031D4E2E0B305C02031D322E5A
:100C6000B8305B024A12031D03184A1613305C02A7
:100C7000031D3C2E88305B02CA12031D031CCA16DA
:100C80004A174A1ACA1E4A134A1F4A2E0230DD006A
:100C90008531F82D8531A1258531F82D02305D0291
:100CA000031D7A2E05305C02031D582EDC305B02DA
:100CB0004B10031D03184B1409305C02031D622EF8
:100CC000C4305B02CB10031D031CCB144B154B1817
:100CD000CB1C4B114B1D762EEB15D701D801D9013A
:100CE000DA01DE010330DD008531F82D8531A125E3
:100CF0008531F82D03305D028531031DF82D01305B
:100D00005C028631031D862E77305B024B12031D79
:100D100003184B1602305C02031D902E71305B02EB
:100D2000CB12031D031CCB164B174B1ACB1E4B13B8
:100D30004B1FA82EEB1DA62EDE0A0310D70DD80DD3
:100D4000D90DDA0D6B1E5714EB11CE2EEB15CE2EEE
:100D500002305C02031DAE2EEE305B024C10031D10
:100D600003184C1404305C02031DB82EE2305B0201
:100D7000CC10031D031CCC144C154C18CC1C4C116E
:100D80004C1DCC2EDE0A0310D70DD80DD90DDA0D6F
:100D90006B1ACE2E5714CE2E8531A125133020008C
:100DA0005E028731031D182FC201C30104305905AB
:100DB000C400C5014208430444044504CC16031989
:100DC000CC1201305705C600C701C801C901460849
:100DD0004704480449044C17031D4C13CC17CC1A84
:100DE0004C1FCC13CC1F142F0310DA0CD90CD80CC9
:100DF000D70CC201C30101305905C400C501420826
:100E0000430444044504EB140319EB10D901DA013F
:100E10005808A0005908A1005A08A200A301200800
:100E2000DF005708E0006B158531A1258531F82DCD
:100E30008531F82D2000670821005014031D501043
:100E40005018252F20002010080020002014080032
:100E500020006708210050140319501005302000AD
:100E600067022100D010031DD01450155018D01C5B
:100E7000501150193E2F200020100800200020148F
:100E8000080021008C12080021008C16080044275D
:100E900028001E1187309E05FC309E0568309D009D
:100EA000083025009E003F309A05F0301A050E38B4
:100EB0009A0022001E14CF3025009A053430980085
:100EC00028001E1508002800171144272000E701FC
:100ED00008006B1F712FE1010330E200E301E40120
:100EE000762FE1010230E200E301E4016508E1044C
:100EF0006308E4006208E3006108E200E1016608BB
:100F0000E1046308E4006208E3006108E200E10133
:100F10000630FF000310E20DE30DE40DFF0B8A2FF6
:100F20000830E800EB170130E7002800950117159D
:100F30000800632720006B139310873028001705E3
:100F400038389700FC309705F9309600210093144B
:100F50000B178B178731472F2100D000200067081F
:100F6000031DC32F21005618B82F20006B13BA2F72
:100F700020006B17210050082000E50021005208D6
:100F80002000E600692F080086312000931C012E06
:100F9000931067088731031DCF2F8631012E670319
:100FA000031DDE2F41272000E80368088631031D5A
:100FB000012E0430E8000230E700012E0230670203
:100FC000031DEF2F44272000E80368088631031D26
:100FD000012E1330E800EB170330E700012E033039
:100FE00067028831031D2E28EB1F0C28C201C301A4
:100FF000C40180306405C50042084304440445042C
:10100000031906288731412788310828873144276A
:101010002000EB138631012EC201C301C4018030D0
:101020006405C500420843044404450403191C2810
:101030008731442788311E28873141272000EB174C
:101040000310E10DE20DE30DE40DE80368088831BB
:10105000031D2C280430E7008631012E043067027E
:10106000031D3B288731442796302000E8000530D7
:10107000E7008631012E05306702031D4728E8038B
:101080006808031D4728873163278631012E863182
:10109000012EEF010130F700210020140130220061
:1010A0008E002100201CED28083077022100A010BE
:1010B00003195C28031CA0142015A018201C201163
:1010C000201D9B28F8013C3078022100A011031953
:1010D0006B28031CA0152012A01D732820008C1D56
:1010E0007328210020162100A012201E7C28200039
:1010F0000C1E7C282100A0162100A01E87280A3083
:10110000DA00DB0181319521F80A88316328201348
:1011100020008C190C1E8E28210020172100201F72
:101120009928031020000E0DFA0022008E00F70A05
:10113000542820105428F70377082100A01703191A
:10114000A0132114A01B201C2110211CE028F80151
:101150003C3078022100A1100319B028031CA1140F
:101160002111A11CB82820008C1DB82821002115B0
:101170002100A111211DC12820000C1EC128210021
:10118000A1152100A11DCC280A30DA00DB01813134
:101190009521F80A8831A828211220008C190C1EEC
:1011A000D328210021162100211EDE280310200053
:1011B0000E0CFA0022008E00F7039C2820109C28B9
:1011C000F70A2000EF0A0F306F02031D512801308B
:1011D0000E05F7002100201051289331752382312C
:1011E000352222008E0177080800EF01F00122006D
:1011F0008E01823135227A1420008C190C1E7A104F
:1012000089317A1C3B2922008D1701302100DA0038
:10121000DB018131952122008D13F80164307802C1
:10122000FA10893103191629031CFA147A152000C3
:10123000FA188C1D7A11FA157A190C1EFA118831D8
:10124000FA1DFB28F80AEF0A0319F00A50306F0262
:10125000A0004630700220048931031D3329EF01BC
:10126000F00193314D230A302100DA00DB01813196
:10127000952189310E29933175238231352A013028
:10128000F70022008E012100201020008C190C1E76
:101290004B29210020142100201CB22901302000FC
:1012A000EF007708F8002100A01020008C190C1E18
:1012B0005B292100A014083020006F0221002011BA
:1012C00003196429031C2015A015A018201DA011C6
:1012D000A01D8429780803197429013020000E0408
:1012E000FA0022008E00F80364302100DA00DB01EE
:1012F00081319521031020000E0DFA0022008E008E
:101300002000EF0A893153297708F8002100A01244
:1013100020008C190C1E8E292100A01678082100AF
:10132000201703192013A017A01A201FA013A01F15
:10133000A729F8036430DA00DB018131952103101D
:1013400020000E0DFA0022008E0089318629083017
:1013500077020319AF290318AF29F70A432901308F
:10136000F7004329933175238231352222008E0103
:10137000080022008E017A14FA1420008C190C1E29
:10138000FA108A31FA1C482A0130EF000430F700C5
:101390007A158C190C1E7A1108306F02FA118931F6
:1013A0000319D429031CFA157A167A19FA1D7A1230
:1013B0008A317A1E112A89317A1CF7297708031994
:1013C000E72901300E04F80022008E00F7033230C6
:1013D0002100DA00DB0181319521031020000E0D80
:1013E000F80022008E002000EF0A8931C829770812
:1013F0008A310319012A80300E04F80022008E0081
:10140000F70332302100DA00DB018131952103102E
:1014100020000E0CF80022008E002000EF0A893117
:10142000C8290430F700FA1720008C190C1EFA1393
:1014300077087B1403197B10FB14FA1B7B1CFB1031
:10144000FB1C412A7A1C322A32302100DA00DB01EF
:1014500081319521031020000E0DF80022008E002E
:101460008A313E2A32302100DA00DB0181319521B8
:10147000031020000E0CF80022008E00F7038A31C2
:10148000132A7A1C452A7A10462A7A148931BC29F3
:10149000933175238231352222008E01080021000C
:1014A0003414A601083021002602341103195A2AE7
:1014B000031C3415B4153418341DB4118B31B41D0C
:1014C000D12B0130D000D1018131B9212100B414D8
:1014D00022008E018D130D138D122100A60A2608FD
:1014E000BC00AC018A31A32A81311C212100B0004B
:1014F00007303005B1006F30840085012C08840767
:10150000310A80006F30840085012C0884070008B0
:1015100083311523F4302100DA000130DB00813102
:1015200095216F308400850121002C088407000874
:1015300083317623F4302100DA000130DB00813181
:1015400095212100AC0A2C083C028A31031D742A23
:101550000130D000D1018131B92122008D17013035
:101560008331152301302100AD00AC012100B416F8
:101570003418B41CB4122C08260234138A3103190F
:10158000C32A03183417B417B41A341FB4138B3199
:10159000B41FCA2B8131FC218A3120002018D32AA4
:1015A00021003510D52A210035148B31351C4A2BEA
:1015B000933175232100AE018A3120000C1EE32AED
:1015C0002100B510E52A2100B51419302E0235117D
:1015D0000319EC2A031C3515B515B518351DB511C1
:1015E000B51DFB2A1430DA00DB0181319521210081
:1015F000AE0A8A31DC2A19302E028B31031D332BBF
:101600006F30840085012C08840700082D02031D1B
:10161000162BAC0A22000D1701302100D000D10199
:101620008131B92122000D138B31422B22000D1381
:101630008D1682313522823167222100AA002A08C4
:101640008B3103191B2B02302A02031D2A2BA60102
:10165000B4102B2B341022008E018D128D13823189
:1016600035228B31422B2D0883317623083021001F
:101670002D028B3103193F2B03183F2BAD0A2D0888
:10168000833115238A312100341CB62A8231292264
:101690008A31B62A8131E7218B3120002018532B63
:1016A0002100B610552B2100B6148A31B61CB62A7B
:1016B000933175232100AE018B3120008C1D632BEB
:1016C00021003611652B2100361519302E02B61176
:1016D00003196C2B031CB61536163619B61D3612B7
:1016E000361E7B2B1430DA00DB018131952121007D
:1016F000AE0A8B315C2B19302E02031DB32B6F30D9
:10170000840085012C08840700082D02031D962BF8
:10171000AC0A22000D17F4302100DA000130DB00A2
:101720008131952122000D138B31C22B22000D1324
:101730008D1682313522823167222100AA002A08C3
:101740008B3103199B2B02302A02031DAA2BA60101
:10175000B410AB2B341022008E018D128D13823108
:1017600035228B31C22B2D088331762301302100A5
:101770002D028B310319BF2B031CBF2BAD032D088A
:10178000833115238A312100341CB62A823112227A
:101790008A31B62A22008E018D13823135228A3198
:1017A000522A08302602031DD92B8431CC248B31D8
:1017B000DC2B2608843137248231352222000D1398
:1017C0008D128E0108008030B8000230B9008030E0
:1017D000BB00BC01BD0138082000A8002100390869
:1017E0002000A900210032082000A40021003308B5
:1017F0002000A50080312C2020002A082100BE00F6
:1018000020002B082100BF003E083F048C31031943
:10181000112C3B08BC043908B3023808B202031C7F
:10182000B3030310B90CB80C0310BB0CBD0A07308E
:101830003D028B31031DEB2B3C0822008E0008007B
:10184000FF3022008E0001302100D000D101813113
:10185000B9212100B201031020000E0C2100B400B8
:1018600022008E0001302100D000D1018131B92148
:101870002100B20A083032028C31031D2B2C0800E3
:10188000FF3022008E008D138D120D1321002E14B7
:10189000A401823135228D3121002E1C332D8C3153
:1018A00020008D1A572C82311E22823129222200DB
:1018B0008D120D138E01F4302100DA000130DB00AF
:1018C0008131952103102100240DA60080310620CE
:1018D0002000EF0001302100260780310620200083
:1018E000F0006F082100B200200070082100B30052
:1018F0008B31E32302302100D000D1018131B921A5
:1019000022008E0180316820200020082100A600DE
:10191000200021082100A70050302000A8004630F8
:10192000A900210026082000A4002100270820008B
:10193000A50080312C20200026082100A8002000CE
:1019400027082100A900B8302807A0000B30293D46
:10195000A100200821042E1503192E11AE118C317F
:101960002E1DB72C20000C1EB72C2100AE15210017
:10197000AE1DCD2C2000DE30A0000430A1008C3143
:10198000A10BC02C8C31A00BBD2C0000000021004D
:10199000A003200A0319A103A92C2008210403197C
:1019A000D42C20248D31272D22008D1720006F0884
:1019B0002100B200200070082100B3008231BC2257
:1019C0008C3120006B1CE72C2100AE12E92C210089
:1019D000AE162E1320000C1EF02C2100AE1A2E176E
:1019E00021002E1FF42CE02C22008D138231CD22F9
:1019F00020002008F8002108F9008D316B1C172DFC
:101A000022008D16FF308E0021002408031DA40340
:101A100082313522823167222100A50025088D31CF
:101A200003190A2D2503031D272D2E10272D220013
:101A30000D172100A40A7808B2007908B3008B3191
:101A4000E32301302100D000D1018131B9210630DA
:101A5000210024028D3103192E1093317523823118
:101A600035228C314B2C22000D138D128D13063034
:101A700021002402031D402D8431CC248D31442DBE
:101A8000240AA600843137248231352222008E01B7
:101A900008002100261422008D13823135228D3159
:101AA0002100261C9C2D813022008E001930F80068
:101AB000F901780879042100261603192612A616C2
:101AC000261A261CA612A61E782D0A30DA00DB0183
:101AD00081319521F803780A0319F90321002610B2
:101AE0008D3120008C190C1E772D21002614592DC4
:101AF00022008E011930F800F901780879042100DC
:101B0000A6170319A6132714A61B261C2710271C8B
:101B10004F2D0A30DA00DB0181319521F803780A74
:101B20000319F903210026108D3120008C190C1E99
:101B30009B2D210026147D2D22008E0121002614CC
:101B4000823135228E312100261CD72E22000D1322
:101B50008D128D172100A6140130A40022008E00E2
:101B600020302000EF004E30F00021002615A61195
:101B7000A001210027152618A61C27118D31271D2D
:101B8000A22D261DC62D0310A40DC82D0310A40CD4
:101B9000240822008E00F801F9018030210024057C
:101BA000A50025088E310319152E79082000700232
:101BB0008D31031DDD2D78086F02210027120319D6
:101BC000E32D03182716A712271EEB2D20000C1E4D
:101BD000EB2D2100A7162100A71EF92DF80A0319E5
:101BE000F90A20000C30A0008D31A00BF52D00006B
:101BF000D52D82312922780820006F02A0007908B3
:101C0000700220048E31031D0F2E2100A610083013
:101C1000833176230730833115238E31952E2100B1
:101C2000A615933175238E31952E01302405A5001C
:101C3000250803195A2E790820007002031D222E50
:101C400078086F02210028100319282E0318281481
:101C5000A810281C302E20008C1D302E2100A81426
:101C60002100A81C3E2EF80A0319F90A20000C30A6
:101C7000A0008E31A00B3A2E00001B2E82311222C2
:101C8000780820006F02A0007908700220048E31CD
:101C9000031D542E2100A61001308331762302301B
:101CA000833115238E31952E2100A615933175238E
:101CB0008E31952E790820007002031D612E780860
:101CC0006F022100A8110319672E0318A815281206
:101CD000A81D6F2E20008C1D6F2E210028162100BC
:101CE000A812281E782E20000C1E782E2100A8167F
:101CF0002100A81E862EF80A0319F90A20000C30CC
:101D0000A0008E31A00B822E00005A2E78082000F1
:101D10006F02A0007908700220040319932E9331FA
:101D200075232100A6102100A6118E312100A61CCA
:101D3000BF2EA61DBB2E261D9F2E2611A02E2615BA
:101D400022000D172100A00A073020007002031D99
:101D5000AB2ED0306F020319B72E031CB72E0730FD
:101D6000F002D030EF02031CF0038D31B92D2100B9
:101D700026108D31B92D22000D138D31B92D220081
:101D80000D138D168D138231352282316722FE00AC
:101D90007E088E310319C52E7E03031DD12E21002E
:101DA000261093317523823135228D31B92D2200D1
:101DB0000D138D128D13823135220A30210020023D
:101DC0008E31031DE72E8431CC248E31ED2E200878
:101DD000031DA003200884313724823135222200DC
:101DE0008E010800823135228531B0251830FA0085
:101DF00022008E008D1721002614A61426118F3183
:101E00002100261CB22F82316722FE0003307E02A1
:101E10008F31031D0E2F21002610852F02307E02E8
:101E2000031D4B2FFF30FA0001302100A0007A087B
:101E300022008E002100A40120000C1E222F210070
:101E4000A612242F2100A6161930240226130319E6
:101E50002B2F031C2617A617A61A261FA613A61F8C
:101E60003A2F1430DA00DB01813195212100A40AD8
:101E70008F311C2F19302402031D452F22000D170E
:101E800005302100A4002615852FA61C492FA61079
:101E90004A2FA614852F7E03031D852F1830FA00C4
:101EA0002100A0017A0822008E002100A401200058
:101EB0008C1D5D2F2100A7115F2F2100A715193060
:101EC000240227120319662F031C2716A716A71929
:101ED000271EA712A71E752F1430DA00DB018131EF
:101EE00095212100A40A8F31572F19302402031D98
:101EF000802F22000D1705302100A4002615852F04
:101F0000A61C842FA610852FA6142100261DA62FFF
:101F100087311A278F3120002018912F2100281097
:101F2000932F210028142818962F882F1030200472
:101F3000A5005610A61856142508D20020005208F5
:101F40008731AC2721002611933175232100240805
:101F50008F310319AE2FA4038E31FF2E22000D13F3
:101F60008E31FF2E0800823135228531B625FF30B3
:101F7000FE002100A401AA1022008E018D178231DB
:101F800067222100A50003302502903103193F2864
:101F90008531CC258F3120002018D12F2100AA11A6
:101FA000D32F2100AA159031AA1D3928933175230A
:101FB0008531D125FA0021002A1056182A1452081A
:101FC000A0007A082000520221002A1203192A16C2
:101FD0007A08AA16031DAA122A132A1EAA1A2A1759
:101FE000F0302005A60010302602AA130319AA1704
:101FF0002B142A1BAA1F2B1090312B1C3928AB1035
:102000002A1C0528AA1C06280728AA18AB147A0837
:102010007E022B11031D2B15AB11AB1C2B19AB151D
:10202000200824022B12031D2B16AB12AB1D2B1AFA
:10203000AB16AB1E3928AA102A18AA147A08FE007B
:102040002008A4000F302005A6002608031D2C2818
:10205000183022008E002F28FF3022008E000D172E
:102060002C302100DA000130DB0081319521220083
:102070000D13823167222100A5008F31C32F8531D6
:10208000B02D8231352222000D138D121830200020
:10209000EF0078148C190C1E78109031781C77287A
:1020A0006F0822008E003230F7007708F814031909
:1020B000F81078152000F8188C1D7811F81578198B
:1020C0000C1EF811F81D6D280A302100DA00DB0122
:1020D00081319521F7039031552818306F02031D87
:1020E0007428FF30EF0049281830EF00492881316B
:1020F000E721F81220002018F8169031F81E8428E5
:102100008F31B327903186288E31F22682313522E5
:1021100022000D138D128D138E010800823135229D
:102120002100C2144211C21122008E010D138D1222
:102130008D1321004212B4010130BB009131C21C49
:102140002529A6016F3084008501260884078001B7
:10215000A60A053026029031031DA228A6010530EB
:1021600026020319DD280318DD2881311C212100F6
:10217000BE0007303E05BF003F0AA400FE0142102A
:1021800005307E0290310319D2280318D2286F300F
:10219000840085017E088407000824020319421484
:1021A000FE0AC0284218AF286F3084008501260837
:1021B000840724088000A60AAF28A501A6016F3075
:1021C00084008501260884070003BE00FF0001305B
:1021D000BC007F08EE280310BC0DFF03031DEB2895
:1021E0003C08A504A60A05302602031DDF282508A1
:1021F00022008E00C8302100BA003A08C315031926
:10220000C31143129131C31D0A2920008C1D0A29D4
:10221000210043162100C312431E132920000C1E67
:1022200013292100C3162100C31E1F290A30DA001A
:10223000DB01813195212100BA039031FD283A0854
:10224000C214031DC21090319E288231352285317F
:10225000B62522008D172100C2149331C21C2E2BEB
:102260001430DA00DB01813195218531CC259131A3
:10227000200020183E292100C31340292100C31744
:10228000C31FCD29933175232100250822008E001C
:102290008531D1252100AC005208AD002C0820006A
:1022A00052022100441003194414F0302D05BE00E1
:1022B00020303E02C4100319C41444154418C41C31
:1022C00044119131441DCD2922000D170F302100FA
:1022D000AD052D08BD002D03BE00FF000130AD008F
:1022E0007F0875290310AD0DFF03031D72292D0909
:1022F000BE00A505250822008E0021002508031D2B
:1023000087292030AE00C2156430B80089292130F9
:10231000AE00CF013D088331D623FA302100DA0028
:10232000DB018131952121003D088331D623FA302C
:102330002100DA00DB01813195212100CF0A033031
:102340004F029131031D8A2922000D138531B025DA
:1023500087311A27913120002018B1292100C41299
:10236000B3292100C416C41AB629A82956102E086C
:10237000D200200052088731AC27873128279131BD
:1023800020002018C6292100C413C8292100C41721
:10239000C41FCB29BD298531B62582316722210092
:1023A000AA0003302A029131031DD929C2109231AB
:1023B000782A02302A029231031D2A2A933175238A
:1023C00022008E0121003B08833115232100BA0130
:1023D000913120000C1EEF2921004511F129210027
:1023E000451519303A02C5110319F829031CC51502
:1023F00045164519C51D45129231451E082A14304F
:10240000DA00DB01813195212100BA0A9131E829F6
:1024100019303A02031D0E2A4216252A08303B02C3
:1024200045130319152A031C45173408C51703194A
:10243000C5134614451BC51F46104618BB0A22008B
:102440008E0121003B088331152332302100B40076
:102450009231782A2A03031D782A93317523933108
:10246000752322008E0121003B08833115232100B2
:10247000BA01923120008C1D402A21004611422AC7
:102480002100461519303A02C6110319492A031CC6
:10249000C61546164619C61D4612461E582A143041
:1024A000DA00DB01813195212100BA0A9231392A03
:1024B00019303A02031D5E2A4216752A01303B028A
:1024C00046130319652A031846173408C61703195B
:1024D000C6134714461BC61F47104718BB032200EC
:1024E0008E0121003B088331152332302100B400D6
:1024F000B0019331421E152B7523203021003B047F
:10250000AE0022000D178D16053021003002C710D5
:10251000923103198D2A031CC7144715421AC71C90
:1025200047119331471D0A2B8531B02587311A2772
:102530009231200020189F2A2100C711A12A2100D2
:10254000C715C719A42A962A56102E08D2002000B3
:1025500052088731AC278731282792312000201874
:10256000B42A2100C712B62A2100C716C71EB92AED
:10257000AB2A8531B6252100B201643032024713FF
:1025800092310319C52A031C4717C717421A471F60
:10259000C7139331C71F072B1430DA00DB018131D9
:1025A00095218531CC25923120002018DA2A21008E
:1025B0004810DC2A210048149331481C042B853133
:1025C000D1252100AC005208AD002C082000520299
:1025D0002100C8100319C814F0302D05BE002030AA
:1025E0003E02481103194815C815C818481DC811DE
:1025F0009331C81D042B42120F302D05BE003E083A
:10260000031D042B4215C210B20A9231BD2AB00A32
:102610009231842A421E122B22000D138D162100A6
:102620004212152B22000D178D12210034080319B8
:102630001B2BB403202B250822008E000D138D12B6
:1026400091312100C21D2D293808933103192B2BFC
:10265000B80391312D29C21091312D298531B02532
:1026600093312100421D3B2B8431CC2422000D17D5
:102670008D129331452B22008E010D138D160230E1
:102680002100D000D1018131B921823135222200CF
:102690000D138D128D138E01080022008E010D1373
:1026A0008D128D138531B0252700931113129215C9
:1026B00012168B156300933175238231352A42142B
:1026C0002700931D131A662B200042102000C2140D
:1026D00042188B1DC2108731C21CC42F27009311D2
:1026E0001312921112128B11C42F2000CE01CF01B0
:1026F000D001D101080020007F30A0003D30A100B2
:102700002930A2009331A20B832B9331A10B802B94
:102710009331A00B7E2B94310E2CEF0022000D176D
:102720008D168E017A1420006F08031D992B01303D
:10273000EF008231352294317A1C052C20006F087D
:1027400022008E0082316722F70002307702933137
:10275000031DD52BF80120000C1EB02BFA11B12B54
:10276000FA15193078027A120319B82B031C7A165D
:10277000FA16FA197A1EFA12FA1EC72B1430210023
:10278000DA00DB0181319521F80A9331AB2B193046
:102790007802031DCD2B7A109B2BFE306F0203199C
:1027A000D42B0318D42BEF0A9B2B7703031D9B2BF1
:1027B000F80120008C1DDE2BFB10DF2BFB141930E1
:1027C00078027B110319E62B031C7B15FB15FB1804
:1027D0007B1DFB11FB1DF52B14302100DA00DB0102
:1027E00081319521F80A9331D92B19307802031DD4
:1027F000FB2B7A109B2B01306F0294310319032CB1
:10280000031C032CEF0393319B2B22000D138D121D
:102810008E018231352220006F0808008231AA2201
:102820008531BD258731992722008D170D178D160B
:10283000FF308E0001302100D000D1018131B9215B
:1028400022008E018D130D138D122000EF01F00177
:1028500081311E212000D200520A9431031D372CF1
:102860000130D200EF01F001520881313221823172
:1028700067222000EA0003306A029431031D4A2CCB
:10288000520893318D232000D200EF01F00152084D
:10289000813132212000E901853148250A302100AB
:1028A000DA00DB0181319521200069089431031D94
:1028B0005F2C883149202000E90094314E2C6903B7
:1028C000031D682C8831F5202000E9019431AC2CDF
:1028D00002306902031D722C89313F212000E90179
:1028E0009431AC2C03306902031D7C2C8931B92151
:1028F0002000E9019431AC2C04306902031D862CC0
:102900008A314F222000E9019431AC2C0530690254
:10291000031D902C8C3140242000E9019431AC2C13
:1029200006306902031D9A2C8D3149252000E901EA
:102930009431AC2C07306902031DA42C9031412046
:102940002000E9019431AC2C08306902031DAC2C45
:0C29500090318E202000E90194314E2CC3
:020000040001F9
:02000E00840F5D
:02001000FF1ED1
:00000001FF
