:020000040000FA
:0400000080315728CC
:0800080080314C288207E83426
:10001000033458340234903401342C34013418340D
:100020000134F03400342030B6000310AC0DAD0DB7
:10003000AE0DAF0D0310A40DA50DA60DA70D031C4D
:1000400029282808AC072908AD3D2A08AE3D2B0811
:10005000AF3DB60B152808001030B600A601A70169
:100060000310AA0DAB0D0310A40DA50DA60DA70D31
:1000700027082902031D3E282608280203194228C2
:10008000031849282908A7022808A602031CA70369
:100090002A14B60B3028080020002008B0002108E0
:1000A000B1002208B2002308B3009331382B183076
:1000B000BA00D230BB002230BC00BD01E530BE002A
:1000C0005530BF009A30C0001530C10081315F2922
:1000D00020003A08A4003B08A5003C08A6003D0803
:1000E000A700CD30A8000D30A9000130AA00AB0157
:1000F000132020002C082100D20020002D08210010
:10010000D30020002E082100D40020002F08210059
:10011000D5007B3052072000A00000302100533D65
:100120002000A10000302100543D2000A20000303A
:100130002100553D2000A3002008BA002108BB0083
:100140002208BC002308BD0040082100D500200083
:100150003F082100D40020003E082100D300D20136
:100160000530FF000310D30DD40DD50D8031FF0BEA
:10017000B22852082000BE06210053082000BF0606
:10018000210054082000C006210055082000C106A7
:1001900040082100D200200041082100D300D401F2
:1001A000D5010310D30CD20C52082000BE0621004A
:1001B00053082000BF06210054082000C00621007B
:1001C00055082000C10603103E0D2100D20020007A
:1001D0003F0D2100D3002000400D2100D40020005D
:1001E000410D2100D5000430FF000310D20DD30DC6
:1001F000D40DD50DFF0BF52852082000BE062100B6
:1002000053082000BF06210054082000C00621002A
:1002100055082000C1063A083E072100D200200000
:100220003B083F3D2100D30052082000A0002100E0
:1002300053082000A1000800803168286F08FA00E8
:100240007008FB00FC01FD012300951C28292429CE
:100250007A0891007B089200151395131514130862
:10026000F8000800F8006F082100A00020007008C6
:100270002100A100A201A3012300951C40293C29D3
:100280002100200823009100210021082300920072
:10029000151395137808930015157A108B1B7A1493
:1002A0008B1355309600AA3096009514000000007C
:1002B0007A185C298B135D298B171511080087307C
:1002C0002100190578389900FC3099053F30240049
:1002D0008C00FF308D00FF308E002100951323002D
:1002E0008C018D018E0121009D019E0104302200B0
:1002F0009100920104309300940121000E108E10A1
:100300000E118E110E128E120E138E138D130D13ED
:100310008D128C150C168C160C150D122000CE01AA
:10032000CF01D001D1019331542B5A08DC005B0876
:10033000DD00DE01DF01AD292000A630A00006307F
:10034000A1008131A10BA2298131A00B9F290000BE
:1003500000002100DE0A0319DF0A5E085C022000AB
:10036000A00021005F085D0220002004031D9C29DD
:1003700008005008D6005108D700D801D901D62965
:1003800020003030A000F830A1006E30A200813192
:10039000A20BC8298131A10BC5298131A00BC3292A
:1003A000000000002100D80A0319D90A5808560293
:1003B0002000A00021005908570220002004031D3E
:1003C000C029080032302100DA00DB019521933189
:1003D0004E2B21003D1020008C19F529E22181319E
:1003E00020008C19F52921003D1421003D18FB291E
:1003F0002000201008002000201408003D10823149
:1004000020000C1A0B2A8131E221823120000C1AC3
:100410000B2A21003D1421003D18112A2000201034
:10042000080020002014080020008C19182A142A23
:100430008131E221823120008C191F2A1A2A0800FA
:100440000C1E232A202A8131E221823120000C1E39
:100450002A2A252A080020000C1A2F2A2B2A81314B
:10046000E221823120000C1A362A312A08002000AD
:100470008C1D3D2A210058103F2A210058142000CD
:100480000C1E452A2100D810472A2100D8145811E3
:10049000581CD8185815581D4E2A372A8131E22188
:1004A000823120008C1D572A2100D811592A2100A1
:1004B000D81520000C1E5F2A21005812612A210045
:1004C0005816D812D81D581AD816D81E682A502A7D
:1004D00008002100D00120008C19872A8131E221F7
:1004E000823120008C19872A0C1A842A8131E2215A
:1004F000823120000C1A802A03302100D000872A84
:1005000001302100D000872A01302100D0002000D6
:100510000C1AA32A8131E221823120000C1AA32A6D
:100520008C19A02A8131E221823120008C199C2A69
:1005300003302100D000A32A02302100D000A32ADA
:1005400002302100D00021005008080020001C11BA
:10055000080020001C150800A622200091106B1036
:1005600087309C05FC301C0502389C00F9309B004C
:10057000210091140B178B178231A92AA622200083
:1005800091106B109A01210032082000D300210045
:1005900033082000D400D501D6018231A92AA62231
:1005A000200055082100B200200056082100B300A9
:1005B0008231A922210032082000A0002100330846
:1005C0002000A10008008331911C0E2B9110D50A48
:1005D0000319D60A530854048231031DF12A6B14FF
:1005E000F52AD303530A0319D403CE0A0319CF0AF9
:1005F0000319D00A0319D10AE0304E02A00093304B
:100600004F02A00404305002200451048331031D22
:100610000E2BCE01CF01D001D10101003008A00086
:100620003108A1003208A2003308A300090021000C
:10063000D0005003031D242B013020000E042100A4
:10064000D20022008E00080002305002031D302B21
:10065000023020000E042100D20022008E0008008B
:1006600003305002031D3C2B043020000E042100F7
:10067000D20022008E00080004305002031D482BD7
:10068000083020000E042100D20022008E00080055
:1006900005305002031D542B103020000E042100A1
:1006A000D20022008E00080006305002031D602B8D
:1006B000203020000E042100D20022008E0008000D
:1006C00007305002031D6C2B403020000E04210027
:1006D000D20022008E00080008305002031D772B44
:1006E000803020000E042100D20022008E0008007D
:1006F000BD003D03031D842BFE3020000E052100AC
:10070000BE0022008E00080002303D02031D902B27
:10071000FD3020000E052100BE0022008E000800E2
:1007200003303D02031D9C2BFB3020000E052100F1
:10073000BE0022008E00080004303D02031DA82BDD
:10074000F73020000E052100BE0022008E000800B8
:1007500005303D02031DB42BEF3020000E052100B3
:10076000BE0022008E00080006303D02031DC02B93
:10077000DF3020000E052100BE0022008E000800A0
:1007800007303D02031DCC2BBF3020000E05210099
:10079000BE0022008E00080008303D02031DD72B4A
:1007A0007F3020000E052100BE0022008E000800D0
:1007B000D0005003031DE42B013020000E06210061
:1007C000D20022008E00080002305002031DF02BE0
:1007D000023020000E062100D20022008E00080008
:1007E00003305002031DFC2B043020000E062100B4
:1007F000D20022008E000800043050028431031D14
:10080000092C083020000E062100D20022008E00A4
:10081000080005305002031D152C103020000E0674
:100820002100D20022008E00080006305002031D75
:10083000212C203020000E062100D20022008E0044
:10084000080007305002031D2D2C403020000E06FA
:100850002100D20022008E00080008305002031D43
:10086000382C803020000E062100D20022008E009D
:100870000800BD0022008E0121003D08031D432C0D
:100880000130BD004B2C08303D0203194B2C031CDA
:100890004B2C0830BD0082313722210049118431B0
:1008A00020008C190C1E562C210049152100491DD1
:1008B000C92C3D08CB00CC018E2C031020000E0D5E
:1008C0002100C00001304004C10022008E00210040
:1008D000BE0196303E02C9110319702C031CC915C4
:1008E0004912C91D782C20008C1D782C2100491636
:1008F0002100C912491E812C20000C1E812C2100D0
:10090000C9162100C91E8D2C0130DA00DB018131AE
:1009100095212100BE0A8431692CCC0A4C084B0277
:10092000031D5D2C3D08CD00CE01C42C031020001A
:100930000E0C2100C00022008E002100BE01963066
:100940003E02C9130319A62C031CC9174A10C91F5C
:10095000AE2C20008C1DAE2C21004A142100CA10A0
:100960004A1CB72C20000C1EB72C2100CA142100F1
:10097000CA1CC32C0130DA00DB0181319521210032
:10098000BE0A84319F2CCE0A4E084D02031D962CC0
:100990004D2C8231372222008E01080022008E0168
:1009A0002100D00156148231372285312100561C96
:1009B000452D50088431031DE52C183022008E008F
:1009C00001302100D00085311C2D5003031DF02C77
:1009D0003C3022008E0002302100D00085311C2DD9
:1009E00002305002031DFC2C7E3022008E000330AA
:1009F0002100D00085311C2D033050028531031DAC
:100A0000082DFF3022008E0004302100D0001C2D64
:100A100004305002031D132D7E3022008E0005305D
:100A20002100D0001C2D05305002031D1C2D3C3030
:100A300022008E002100D0011430D2005208D617B7
:100A40000319D6135710D61F2A2D20000C1E2A2D4D
:100A5000210057142100D710571C332D20008C1D66
:100A6000332D2100D7142100D71C3F2D0A30DA0086
:100A7000DB01813195212100D20385311E2D5208E1
:100A80005614031D56108431D52C82313722220092
:100A90008E01080022008E012000EF01F00182315A
:100AA000372221002010853120008C190C1E5A2D70
:100AB00021002014013020007002031D612D2C3014
:100AC0006F022100A0100319672D031CA01420152C
:100AD0002018A01C2011201D9C2D81311C21FA0002
:100AE00022008E002000EF0A0319F00AF8011430EA
:100AF00078022100A01185310319802D031CA01557
:100B00002012A01D882D20008C1D882D210020166C
:100B10002100A012201E912D20000C1E912D2100DD
:100B2000A0162100A01E512DF80A0A30DA00DB01C0
:100B3000813195218531772D93314E2382313722B2
:100B400022008E0108002000DD011810EB121110A8
:100B50006B126B1AAE2D21001513B02D2100151745
:100B60008B1008000B1220006B1122000D120800E0
:100B700022000D16A32520006B110B160800A325DB
:100B80008531B2253F3020009805CF301805203838
:100B90009800210011140B178B170800200020105B
:100BA0006B19201408002000EB18D92D21005610D5
:100BB000DB2D2100561420005F082100D00020000A
:100BC00060082100D20020006B11210050080800AD
:100BD0002000EB1EEF2DFF30A000A100080016083A
:100BE000A0001708A100080096019701EB12111050
:100BF0001814080082312000111CE32A111018106B
:100C0000EB168B14E32A20004A148B180B1E4A1093
:100C100085314A1CFA2D8B1086316B1E112E6B12FA
:100C2000122E6B166B1A172E21001513192E210088
:100C300015178531E82520002008DB002108DC009D
:100C40008531F42520005D088631031D2B2E0130EF
:100C5000DD008531FA2D5D03031D502E0B305C0243
:100C6000031D342EB8305B024A12031D03184A16C6
:100C700013305C02031D3E2E88305B02CA12031D36
:100C8000031CCA164A174A1ACA1E4A134A1F4C2E78
:100C90000230DD008531FA2D8531A3258531FA2D0D
:100CA00002305D02031D7C2E05305C02031D5A2EAE
:100CB000DC305B024B10031D03184B1409305C023F
:100CC000031D642EC4305B02CB10031D031CCB1428
:100CD0004B154B18CB1C4B114B1D782EEB15D70128
:100CE000D801D901DA01DE010330DD008531FA2DAA
:100CF0008531A3258531FA2D03305D028531031D31
:100D0000FA2D01305C028631031D882E77305B029C
:100D10004B12031D03184B1602305C02031D922E6A
:100D200071305B02CB12031D031CCB164B174B1A01
:100D3000CB1E4B134B1FAA2EEB1DA82EDE0A031051
:100D4000D70DD80DD90DDA0D6B1E5714EB11D02E1F
:100D5000EB15D02E02305C02031DB02EEE305B028C
:100D60004C10031D03184C1404305C02031DBA2EF2
:100D7000E2305B02CC10031D031CCC144C154C1844
:100D8000CC1C4C114C1DCE2EDE0A0310D70DD80DF5
:100D9000D90DDA0D6B1AD02E5714D02E8531A3251C
:100DA000133020005E028731031D1A2FC201C301D8
:100DB00004305905C400C5014208430444044504F5
:100DC000CC160319CC1201305705C600C701C80163
:100DD000C90146084704480449044C17031D4C1335
:100DE000CC17CC1A4C1FCC13CC1F162F0310DA0CC7
:100DF000D90CD80CD70CC201C30101305905C4006D
:100E0000C5014208430444044504EB140319EB10E4
:100E1000D901DA015808A0005908A1005A08A20017
:100E2000A3012008DF005708E0006B158531A325DA
:100E30008531FA2D8531FA2D2000670821005014E4
:100E4000031D50105018272F2000201008002000EC
:100E500020140800200067082100501403195010C6
:100E60000530200067022100D010031DD01450155A
:100E70005018D01C50115019402F2000201008008D
:100E800020002014080021008C12080021008C167C
:100E90000800462728001E1187309E05FC309E055D
:100EA00068309D00083025009E003F309A05F030E4
:100EB0001A050E389A0022001E14CF3025009A051C
:100EC0003430980028001E15080028001711462706
:100ED0002000E70108006B1F732FE1010330E200DF
:100EE000E301E401782FE1010230E200E301E401D3
:100EF0006508E1046308E4006208E3006108E200B9
:100F0000E1016608E1046308E4006208E3006108A7
:100F1000E200E1010630FF000310E20DE30DE40DF5
:100F2000FF0B8C2F0830E800EB170130E70028009A
:100F3000950117150800652720006B139310873063
:100F40002800170538389700FC309705F9309600CF
:100F5000210093140B178B178731492F2100D000E4
:100F600020006708031DC52F21005618BA2F200046
:100F70006B13BC2F20006B17210050082000E500E8
:100F8000210052082000E6006B2F08008631200067
:100F9000931C032E931067088731031DD12F8631D0
:100FA000032E6703031DE02F43272000E803680892
:100FB0008631031D032E0430E8000230E700032EC3
:100FC00002306702031DF12F46272000E80368085E
:100FD0008631031D032E1330E800EB170330E700C2
:100FE000032E033067028831031D3028EB1F0E28C3
:100FF000C201C301C40180306405C5004208430436
:1010000044044504031908288731432788310A28F6
:10101000873146272000EB138631032EC201C3011E
:10102000C40180306405C5004208430444044504FB
:1010300003191E2887314627883120288731432706
:101040002000EB170310E10DE20DE30DE40DE803C2
:1010500068088831031D2E280430E7008631032EEE
:1010600004306702031D3D28873146279630200053
:10107000E8000530E7008631032E05306702031DC6
:101080004928E8036808031D492887316527863108
:10109000032E8631032EEF010130F70021002014CA
:1010A000013022008E002100201CEF28083077023A
:1010B0002100A01003195E28031CA0142015A018FD
:1010C000201C2011201D9D28F8013C3078022100B1
:1010D000A01103196D28031CA0152012A01D75284E
:1010E00020008C1D7528210020162100A012201E32
:1010F0007E2820000C1E7E282100A0162100A01EA4
:1011000089280A30DA00DB0181319521F80A88311B
:101110006528201320008C190C1E90282100201710
:101120002100201F9B28031020000E0DFA00220032
:101130008E00F70A562820105628F703770821005A
:10114000A0170319A0132114A01B201C2110211C7F
:10115000E228F8013C3078022100A1100319B228DE
:10116000031CA1142111A11CBA2820008C1DBA282F
:10117000210021152100A111211DC32820000C1ED2
:10118000C3282100A1152100A11DCE280A30DA00B4
:10119000DB0181319521F80A8831AA28211220002B
:1011A0008C190C1ED528210021162100211EE028B3
:1011B000031020000E0CFA0022008E00F7039E2878
:1011C00020109E28F70A2000EF0A0F306F02031D3F
:1011D000532801300E05F7002100201053288231DA
:1011E000372222008E0177080800EF01F00122006B
:1011F0008E01823137227A1420008C190C1E7A104D
:1012000089317A1C3B2922008D1701302100DA0038
:10121000DB018131952122008D13F80164307802C1
:10122000FA10893103191629031CFA147A152000C3
:10123000FA188C1D7A11FA157A190C1EFA118831D8
:10124000FA1DFB28F80AEF0A0319F00A50306F0262
:10125000A0004630700220048931031D3329EF01BC
:10126000F001933126230A302100DA00DB018131BD
:10127000952189310E298231372A0130F700220069
:101280008E012100201020008C190C1E49292100FC
:1012900020142100201CB02901302000EF00770825
:1012A000F8002100A01020008C190C1E59292100E3
:1012B000A014083020006F022100201103196229B8
:1012C000031C2015A015A018201DA011A01D822907
:1012D000780803197229013020000E04FA00220058
:1012E0008E00F80364302100DA00DB0181319521A2
:1012F000031020000E0DFA0022008E002000EF0ADD
:10130000893151297708F8002100A01220008C199A
:101310000C1E8C292100A016780821002017031923
:101320002013A017A01A201FA013A01FA529F8039F
:101330006430DA00DB0181319521031020000E0DAD
:10134000FA0022008E0089318429083077020319BF
:10135000AD290318AD29F70A41290130F7004129C9
:101360008231372222008E01080022008E017A1479
:10137000FA1420008C190C1EFA108A31FA1C432A28
:101380000130EF000430F7007A158C190C1E7A1129
:1013900008306F02FA1189310319D029031CFA159C
:1013A0007A167A19FA1D7A128A317A1E0C2A893134
:1013B0007A1CF32977080319E32901300E04F80099
:1013C00022008E00F70332302100DA00DB01813188
:1013D0009521031020000E0DF80022008E00200041
:1013E000EF0A8931C42977080319FC2980300E04DB
:1013F000F80022008E00F70332302100DA00DB0112
:1014000081319521031020000E0CF80022008E007F
:101410002000EF0A8931C4290430F700FA172000B0
:101420008C190C1EFA1377087B1403197B10FB141C
:10143000FA1B7B1CFB10FB1C3C2A7A1C2D2A323029
:101440002100DA00DB0181319521031020000E0D0F
:10145000F80022008E008A31392A32302100DA0069
:10146000DB0181319521031020000E0CF8002200D1
:101470008E00F7038A310E2A7A1C402A7A10412AFC
:101480007A148931B8298231372222008E0108006E
:1014900021003414A601083021002602341103195A
:1014A000532A031C3415B4153418341DB4118B3170
:1014B000B41DC42B0130D000D1018131B9212100EC
:1014C000B41422008E018D130D138D122100A60A73
:1014D0002608BC00AC018A319C2A81311C212100E4
:1014E000B00007303005B1006F30840085012C0852
:1014F0008407310A80006F30840085012C0884073E
:10150000000883311723F4302100DA000130DB00BA
:10151000813195216F308400850121002C088407DA
:10152000000883317823F4302100DA000130DB0039
:10153000813195212100AC0A2C083C028A31031D1F
:101540006D2A0130D000D1018131B92122008D17DF
:1015500001308331172301302100AD00AC0121009F
:10156000B4163418B41CB4122C08260234138A3171
:101570000319BC2A03183417B417B41A341FB41350
:101580008B31B41FBD2B8131FE218A312000201800
:10159000CC2A21003510CE2A210035148B31351C80
:1015A000402BAE018A3120000C1ED92A2100B51033
:1015B000DB2A2100B51419302E0235110319E22A55
:1015C000031C3515B515B518351DB511B51DF12A16
:1015D0001430DA00DB01813195212100AE0A8A3115
:1015E000D22A19302E028B31031D292B6F30840033
:1015F00085012C08840700082D02031D0C2BAC0A62
:1016000022000D1701302100D000D1018131B92114
:1016100022000D138B31382B22000D138D168231D1
:101620003722823169222100AA002A088B3103194E
:10163000112B02302A02031D202BA601B410212BEE
:10164000341022008E018D128D13823137228B319E
:10165000382B2D0883317823083021002D028B315F
:101660000319352B0318352BAD0A2D0883311723A9
:101670008A312100341CAF2A82312B228A31AF2AD1
:101680008131E9218B3120002018492B2100B6102F
:101690004B2B2100B6148A31B61CAF2AAE018B3118
:1016A00020008C1D562B21003611582B2100361599
:1016B00019302E02B61103195F2B031CB61536160E
:1016C0003619B61D3612361E6E2B1430DA00DB01C9
:1016D000813195212100AE0A8B314F2B19302E021A
:1016E000031DA62B6F30840085012C088407000899
:1016F0002D02031D892BAC0A22000D17F4302100A6
:10170000DA000130DB008131952122000D138B318D
:10171000B52B22000D138D168231372282316922BA
:101720002100AA002A088B3103198E2B02302A02CD
:10173000031D9D2BA601B4109E2B341022008E0198
:101740008D128D13823137228B31B52B2D088331C9
:101750007823013021002D028B310319B22B031C99
:10176000B22BAD032D08833117238A312100341C9D
:10177000AF2A823114228A31AF2A22008E018D13C2
:10178000823137228A314B2A08302602031DCC2BA6
:101790008431CE248B31CF2B2608843139248231F9
:1017A000372222000D138D128E0108008030B80000
:1017B0000230B9008030BB00BC01BD0138082000F8
:1017C000A800210039082000A900210032082000CB
:1017D000A400210033082000A50080312C20200027
:1017E0002A082100BE0020002B082100BF003E086F
:1017F0003F048C310319042C3B08BC043908B302A4
:101800003808B202031CB3030310B90CB80C031060
:10181000BB0CBD0A07303D028B31031DDE2B3C089B
:1018200022008E000800FF3022008E0001302100CF
:10183000D000D1018131B9212100B2010310200073
:101840000E0C2100B40022008E0001302100D000D7
:10185000D1018131B9212100B20A083032028C3124
:10186000031D1E2C0800FF3022008E008D138D12E8
:101870000D1321002E14A401823137228D31210055
:101880002E1C262D8C3120008D1A4A2C82312022CC
:1018900082312B2222008D120D138E01F430210093
:1018A000DA000130DB008131952103102100240D85
:1018B000A600803106202000EF000130210026071D
:1018C000803106202000F0006F082100B2002000C7
:1018D00070082100B3008B31D62302302100D000E4
:1018E000D1018131B92122008E0180316820200090
:1018F00020082100A600200021082100A700503068
:101900002000A8004630A900210026082000A400DD
:10191000210027082000A50080312C202000260867
:101920002100A800200027082100A900B8302807BE
:10193000A0000B30293DA100200821042E15031919
:101940002E11AE118C312E1DAA2C20000C1EAA2C9B
:101950002100AE152100AE1DC02C2000DE30A000FD
:101960000430A1008C31A10BB32C8C31A00BB02C16
:10197000000000002100A003200A0319A1039C2CF1
:10198000200821040319C72C13248D311C2D22009B
:101990008D1720006F082100B20020007008210080
:1019A000B3008231BE228C3120006B1CDA2C210066
:1019B000AE12DC2C2100AE162E1320000C1EE32CE0
:1019C0002100AE1A2E1721002E1FE72CD32C220047
:1019D0008D138231CF2220002008F8002108F90061
:1019E0008D316B1C0C2D22008D16FF308E002100D6
:1019F00024088C31031DA4038231372282316922ED
:101A00002100A50025088C310319FE2C25038D31FA
:101A1000031D1C2D2E101C2D22000D172100A40AC1
:101A20007808B2007908B3008B31D6230130210049
:101A3000D000D1018131B9210630210024028D313D
:101A400003192E10823137228C313E2C22000D13C7
:101A50008D128D13063021002402031D332D843195
:101A6000CE248D31372D240AA600843139248231C9
:101A7000372222008E0108002100261422008D1337
:101A8000823137228D312100261C8F2D813022009A
:101A90008E001930F800F901780879042100261623
:101AA00003192612A616261A261CA612A61E6B2D90
:101AB0000A30DA00DB0181319521F803780A031935
:101AC000F903210026108D3120008C190C1E6A2D7F
:101AD000210026144C2D22008E011930F800F90146
:101AE000780879042100A6170319A6132714A61B4A
:101AF000261C2710271C422D0A30DA00DB01813119
:101B00009521F803780A0319F903210026108D3175
:101B100020008C190C1E8E2D21002614702D220001
:101B20008E0121002614823137228E312100261C9D
:101B3000BF2E22000D138D128D172100A614013027
:101B4000A40022008E0020302000EF004E30F00074
:101B500021002615A611A001210027152618A61C74
:101B600027118D31271D952D261DB92D0310A40D8C
:101B7000BB2D0310A40C240822008E00F801F901EB
:101B8000803021002405A50025088E310319052E7B
:101B90007908200070028D31031DD02D78086F0266
:101BA000210027120319D62D03182716A712271E66
:101BB000DE2D20000C1EDE2D2100A7162100A71E01
:101BC000EC2DF80A0319F90A20000C30A0008D3121
:101BD000A00BE82D0000C82D82312B2278082000B0
:101BE0006F02A0007908700220048E31031D022EBE
:101BF0002100A61008308331782307308331172362
:101C00008E31802E2100A615802E01302405A500DE
:101C100025080319472E790820007002031D122E93
:101C200078086F02210028100319182E03182814B1
:101C3000A810281C202E20008C1D202E2100A81466
:101C40002100A81C2E2EF80A0319F90A20000C30D6
:101C5000A0008E31A00B2A2E00000B2E8231142200
:101C6000780820006F02A0007908700220048E31ED
:101C7000031D442E2100A610013083317823023049
:101C8000833117238E31802E2100A615802E7908EE
:101C900020007002031D4E2E78086F022100A8114B
:101CA0000319542E0318A8152812A81D5C2E200015
:101CB0008C1D5C2E210028162100A812281E652EDE
:101CC00020000C1E652E2100A8162100A81E732ED0
:101CD000F80A0319F90A20000C30A0008E31A00B7D
:101CE0006F2E0000472E780820006F02A0007908B0
:101CF0007002200403197E2E2100A6102100A611D7
:101D00002100A61CA92EA61DA52E261D892E261152
:101D10008A2E261522000D172100A00A0730200068
:101D20007002031D952ED0306F020319A12E031CE3
:101D3000A12E0730F002D030EF02031CF0038D31EA
:101D4000AC2D210026108D31AC2D22000D138D31CC
:101D5000AC2D22000D138D168D1382313722823166
:101D60006922FE007E088E310319AF2E7E03031D0B
:101D7000BB2E21002610823137228D31AC2D22005E
:101D80000D138D128D13823137220A30210020026B
:101D90008E31031DCF2E8431CE248E31D52E2008D6
:101DA000031DA00320088431392482313722220008
:101DB0008E010800823137228531B2251830FA00B1
:101DC00022008E008D1721002614A61426118F31B3
:101DD0002100261C992F82316922FE0003307E02E9
:101DE0008E31031DF72E210026108F316F2F023008
:101DF0007E028F31031D352FFF30FA0001302100A4
:101E0000A0007A0822008E002100A40120000C1EF0
:101E10000C2F2100A6120E2F2100A6161930240225
:101E200026130319152F031C2617A617A61A261FFB
:101E3000A613A61F242F1430DA00DB01813195216F
:101E40002100A40A8F31062F19302402031D2F2FE1
:101E500022000D1705302100A40026156F2FA61CA7
:101E6000332FA610342FA6146F2F7E03031D6F2F60
:101E70001830FA002100A0017A0822008E0021000B
:101E8000A40120008C1D472F2100A711492F2100FC
:101E9000A7151930240227120319502F031C2716E7
:101EA000A716A719271EA712A71E5F2F1430DA0046
:101EB000DB01813195212100A40A8F31412F193096
:101EC0002402031D6A2F22000D1705302100A400F3
:101ED00026156F2FA61C6E2FA6106F2FA61421009B
:101EE000261D8E2F87311C278F31200020187B2F35
:101EF000210028107D2F210028142818802F722FF0
:101F000010302004A5005610A61856142508D2003B
:101F1000200052088731AE272100261124088F3176
:101F20000319952FA4038E31E72E22000D138E3155
:101F3000E72E0800823137228531B825FF30FE00B8
:101F40002100A401AA1022008E018D17823169227E
:101F50002100A5000330250290310319282885317E
:101F6000CE258F3120002018B82F2100AA11BA2FBA
:101F70002100AA159031AA1D222893314E238531C4
:101F8000D325FA0021002A1056182A145208A0005E
:101F90007A082000520221002A1203192A167A0810
:101FA000AA16031DAA122A132A1EAA1A2A17F030EB
:101FB0002005A60010302602AA130319AA172B1415
:101FC0002A1BAA1F2B1090312B1C2228AB108F31FB
:101FD0002A1CED2FAA1CEE2FEF2FAA18AB147A089B
:101FE0007E022B11031D2B15AB11AB1C2B19AB154E
:101FF000200824022B12031D2B16AB12AB1D2B1A2B
:10200000AB169031AB1E2228AA102A18AA147A08FF
:10201000FE002008A4000F302005A6002608031D9E
:102020001528183022008E001828FF3022008E005C
:102030000D172C302100DA000130DB0081319521B1
:1020400022000D13823169222100A5008F31AA2FB1
:102050008531B22D8231372222000D138D121830B6
:102060002000EF0078148C190C1E78109031781C29
:1020700060286F0822008E003230F7007708F814CD
:102080000319F81078152000F8188C1D7811F81530
:1020900078190C1EF811F81D56280A302100DA00B4
:1020A000DB0181319521F70390313E2818306F0212
:1020B000031D5D28FF30EF0032281830EF00322872
:1020C0008131E921F81220002018F8169031F81E0D
:1020D0006D288F319A2790316F288E31DA26823120
:1020E000372222000D138D128D138E0108008231CC
:1020F00037222100C2144211C21122008E010D1399
:102100008D128D1321004212B4010130BB009131B8
:10211000C21C0E29A6016F308400850126088407A1
:102120008001A60A053026029031031D8B28A601E6
:10213000053026020319C6280318C62881311C2140
:102140002100BE0007303E05BF003F0AA400FE018B
:10215000421005307E0290310319BB280318BB28BA
:102160006F30840085017E0884070008240203196B
:102170004214FE0AA928421898286F30840085016D
:102180002608840724088000A60A9828A501A6012D
:102190006F3084008501260884070003BE00FF001D
:1021A0000130BC007F08D7280310BC0DFF03031DBE
:1021B000D4283C08A504A60A05302602031DC82819
:1021C000250822008E00C8302100BA003A08C31545
:1021D0000319C3114312C31DF22820008C1DF228DD
:1021E000210043162100C312431EFB2820000C1EB1
:1021F000FB282100C31691312100C31E08290A3093
:10220000DA00DB01813195212100BA039031E62803
:102210003A08C214031DC210903187288231372238
:102220008531B82522008D172100C2149331C21CBC
:10223000072B1430DA00DB01813195218531CE2561
:1022400091312000201827292100C31329292100BA
:10225000C317C31FB329250822008E008531D3255B
:102260002100AC005208AD002C08200052022100D1
:10227000441003194414F0302D05BE0020303E02F6
:10228000C4100319C41444154418C41C44119131DA
:10229000441DB32922000D170F302100AD052D0874
:1022A000BD002D03BE00FF000130AD007F085B299B
:1022B0000310AD0DFF03031D58292D09BE00A50510
:1022C000250822008E0021002508031D6D292030DD
:1022D000AE00C2156430B8006F292130AE00CF01C6
:1022E0003D088331D823FA302100DA00DB01813147
:1022F000952121003D088331D823FA302100DA00EE
:10230000DB01813195212100CF0A03304F02913149
:10231000031D702922000D138531B22587311C273A
:1023200091312000201897292100C41299292100F9
:10233000C416C41A9C298E2956102E08D2002000DB
:1023400052088731AE2787312A2791312000201883
:10235000AC292100C413AE292100C417C41FB12920
:10236000A3298531B825823169222100AA000330D2
:102370002A029131031DBF29C2109231592A02301D
:102380002A029231031D0F2A22008E0121003B08F0
:10239000833117232100BA01913120000C1ED3296B
:1023A00021004511D5292100451519303A02C511E2
:1023B0000319DC29031CC51545164519C51D451211
:1023C000451EEB291430DA00DB0181319521210013
:1023D000BA0A9131CC2919303A02031DF22942166A
:1023E00092310A2A08303B0245130319F929031CCC
:1023F00045173408C5170319C5134614451BC51FD7
:10240000461092314618BB0A22008E0121003B087B
:102410008331172332302100B4009231592A2A0324
:10242000031D592A22008E0121003B088331172306
:102430002100BA01923120008C1D212A2100461171
:10244000232A2100461519303A02C61103192A2AF7
:10245000031CC61546164619C61D4612461E392AC5
:102460001430DA00DB01813195212100BA0A923162
:102470001A2A19303A02031D3F2A4216562A013001
:102480003B0246130319462A031846173408C61799
:102490000319C6134714461BC61F47104718BB0332
:1024A00022008E0121003B088331172332302100A6
:1024B000B400B0019231421EEE2A20303B04AE003F
:1024C00022000D178D16053021003002C7100319A8
:1024D0006B2A031CC7144715421AC71C4711471D16
:1024E000E32A8531B22587311C279231200020183C
:1024F0007C2A2100C7117E2A2100C715C719812A0D
:10250000732A56102E08D200200052088731AE27B9
:1025100087312A27923120002018912A2100C712E2
:10252000932A2100C716C71E962A882A8531B82506
:102530002100B20164303202471392310319A22AFA
:10254000031C4717C717421A471FC713C71FE12AA3
:102550001430DA00DB01813195218531CE259231AD
:1025600020002018B62A21004810B82A210048145B
:10257000481CDF2A8531D3252100AC005208AD006C
:102580002C08200052022100C8100319C814F03092
:102590002D05BE0020303E02481103194815C8150C
:1025A000C818481DC8119231C81DDF2A42120F30C9
:1025B0002D05BE003E08031DDF2A4215C210B20AD7
:1025C0009A2AB00A632A421EEB2A22000D138D16A6
:1025D00021004212EE2A22000D178D12210034082C
:1025E0000319F42AB403F92A250822008E000D13DA
:1025F0008D1291312100C21D16293808933103191B
:10260000042BB80391311629C21091311629853156
:10261000B22593312100421D142B8431CE24220097
:102620000D178D1293311E2B22008E010D138D1666
:1026300002302100D000D1018131B921823137220D
:1026400022000D138D128D138E01080022008E01C1
:102650000D138D128D138531B2252700931113129E
:10266000921512168B15630093314E238231372A4F
:1026700042142700931D131A3F2B20004210200004
:10268000C21442188B1DC2108731C21CC62F2700EE
:1026900093111312921112128B11C62F2000CE012A
:1026A000CF01D001D101080020007F30A0003D30D3
:1026B000A1002930A2009331A20B5C2B9331A10B16
:1026C000592B9331A00B572BE52BEF0022000D1750
:1026D0008D168E017A1420006F08031D712B0130B6
:1026E000EF008231372293317A1CDC2B20006F08F7
:1026F00022008E0082316922F70002307702933186
:10270000031DAE2BF801933120000C1E892BFA110A
:102710008A2BFA15193078027A120319912B031CAF
:102720007A16FA16FA197A1EFA12FA1EA02B14302B
:102730002100DA00DB0181319521F80A9331832BE6
:1027400019307802031DA62B7A10732BFE306F020E
:102750000319AD2B0318AD2BEF0A732B7703031D61
:10276000732BF80120008C1DB72BFB10B82BFB142A
:10277000193078027B110319BF2B031C7B15FB1545
:10278000FB187B1DFB11FB1DCE2B14302100DA0042
:10279000DB0181319521F80A9331B22B193078028F
:1027A000031DD42B7A10732B01306F020319DB2B1E
:1027B000031CDB2BEF03732B22000D138D128E01F4
:1027C0008231372220006F0808008231AC22853127
:1027D000BF2587319B2722008D170D178D16FF30DF
:1027E0008E0001302100D000D1018131B9212200B9
:1027F0008E018D130D138D122000EF01F001813138
:102800001E212000D200520A9431031D0E2C0130EB
:10281000D200EF01F0015208813132218231692268
:102820002000EA0003306A029431031D212C520873
:10283000933165232000D200EF01F001520881316D
:1028400032212000E90185314A250A302100DA00D1
:10285000DB0181319521200069089431031D362C5C
:1028600088314B202000E9009431252C6903031D99
:102870003F2C8831F5202000E9019431832C02306F
:102880006902031D492C89313D212000E901943161
:10289000832C03306902031D532C8931B52120009C
:1028A000E9019431832C04306902031D5D2C8A31C7
:1028B00048222000E9019431832C05306902031D70
:1028C000672C8C3133242000E9019431832C0630AD
:1028D0006902031D712C8D313C252000E9019431E2
:1028E000832C07306902031D7B2C90312A202000A5
:1028F000E9019431832C08306902031D832C903147
:0A29000077202000E9019431252C16
:020000040001F9
:02000E00840F5D
:02001000FF1ED1
:00000001FF
