:020000040000FA
:0400000080315728CC
:0800080080314C288207E83426
:10001000033458340234903401342C34013418340D
:100020000134F03400342030B6000310AC0DAD0DB7
:10003000AE0DAF0D0310A40DA50DA60DA70D031C4D
:1000400029282808AC072908AD3D2A08AE3D2B0811
:10005000AF3DB60B152808001030B600A601A70169
:100060000310AA0DAB0D0310A40DA50DA60DA70D31
:1000700027082902031D3E282608280203194228C2
:10008000031849282908A7022808A602031CA70369
:100090002A14B60B3028080020002008B0002108E0
:1000A000B1002208B2002308B30093311C2B183092
:1000B000BA00D230BB002230BC00BD01E530BE002A
:1000C0005530BF009A30C0001530C100813165291C
:1000D00020003A08A4003B08A5003C08A6003D0803
:1000E000A700CD30A8000D30A9000130AA00AB0157
:1000F000132020002C082100D50020002D0821000D
:10010000D60020002E082100D70020002F08210053
:10011000D8007B3055072000A00000302100563D5C
:100120002000A10000302100573D2000A200003037
:100130002100583D2000A3002008BA002108BB0080
:100140002208BC002308BD0040082100D800200080
:100150003F082100D70020003E082100D600D5012D
:100160000530FF000310D60DD70DD80D8031FF0BE1
:10017000B22855082000BE06210056082000BF0600
:10018000210057082000C006210058082000C106A1
:1001900040082100D500200041082100D600D701E9
:1001A000D8010310D60CD50C55082000BE0621003E
:1001B00056082000BF06210057082000C006210075
:1001C00058082000C10603103E0D2100D500200074
:1001D0003F0D2100D6002000400D2100D700200057
:1001E000410D2100D8000430FF000310D50DD60DBD
:1001F000D70DD80DFF0BF52855082000BE062100AD
:1002000056082000BF06210057082000C006210024
:1002100058082000C1063A083E072100D5002000FA
:100220003B083F3D2100D60055082000A0002100DA
:1002300056082000A1000800803168282008A50089
:100240002108A600A701A8012300951C282924291C
:100250002100250823009100210026082300920098
:100260001513951315141308FC000800FC00210059
:100270002008A9002108AA00AB01AC012300951CAD
:1002800042293E29210029082300910021002A0843
:1002900023009200151395137C0893001515210077
:1002A00025108B1B25148B13553023009600AA3084
:1002B00096009514000000002100251861298B1379
:1002C00062298B17230015110800873021001905BA
:1002D00078389900FC3099053F3024008C00FF30BD
:1002E0008D00FF308E002100951323008C018D01BD
:1002F0008E0121009D019E01043022009100920197
:1003000004309300940121000E108E100E118E11F6
:100310000E128E120E138E138D130D138D128C155B
:100320000C168C160C150D122000CE01CF01D00139
:10033000D1019331382B5D08DF005E08E000E10158
:10034000E201B3292000A630A0000630A1008131CF
:10035000A10BA8298131A00BA529000000002100D4
:10036000E10A0319E20A61085F022000A0002100EF
:100370006208600220002004031DA229080053081F
:10038000D9005408DA00DB01DC01DC292000303020
:10039000A000F830A1006E30A2008131A20BCE295E
:1003A0008131A10BCB298131A00BC92900000000AC
:1003B0002100DB0A0319DC0A5B0859022000A000B7
:1003C00021005C085A0220002004031DC6290800F1
:1003D00032302100DD00DE019B2921003A1020008F
:1003E0008C19F929E821813120008C19F929210083
:1003F0003A14823121003A18002A20002010080007
:100400002000201408003A1020000C1A0F2A813115
:10041000E821823120000C1A0F2A21003A14210011
:100420003A18152A20002010080020002014080087
:1004300020008C191C2A182A8131E82182312000E1
:100440008C19232A1E2A08000C1E272A242A8131EF
:10045000E821823120000C1E2E2A292A08002000C3
:100460000C1A332A2F2A8131E821823120000C1AFC
:100470003A2A352A080020008C1D412A21005B10F1
:10048000432A21005B1420000C1E492A2100DB10A6
:100490004B2A2100DB145B115B1CDB185B155B1D19
:1004A000522A3B2A8131E821823120008C1D5B2AAF
:1004B0002100DB115D2A2100DB1520000C1E632AC0
:1004C00021005B12652A21005B16DB12DB1D5B1A23
:1004D000DB16DB1E6C2A542A08002100D301200001
:1004E0008C198B2A8131E821823120008C198B2ACA
:1004F0000C1A882A8131E821823120000C1A842AC2
:1005000003302100D3008B2A01302100D3008B2A35
:1005100001302100D30020000C1AA72A8131E821E4
:10052000823120000C1AA72A8C19A42A8131E821D3
:10053000823120008C19A02A03302100D300A72A81
:1005400002302100D300A72A02302100D30021006D
:100550005308080020001C11080020001C1508008A
:10056000AA2220009110751087309C05FC301C05D4
:1005700002389C00F9309B00210091140B178B1757
:100580008231AD2AAA222000911075109A01210013
:100590003D082000D30021003E082000D400D501F2
:1005A000D6018231AD2AAA22200055082100BD00C3
:1005B000200056082100BE008231AD2221003D08F6
:1005C0002000A00021003E082000A1000800833187
:1005D000911C122B9110D50A0319D60A5308540402
:1005E0008231031DF52A7514F92AD303530A03191E
:1005F000D403CE0A0319CF0A0319D00A0319D10A6A
:10060000C0304E02A00027304F02A0040930500233
:10061000200451048331031D122BCE01CF01D001E0
:10062000D10101003008A0003108A1003208A20069
:100630003308A30009002100D3005303031D282B16
:10064000013020000E042100D50022008E00080099
:1006500002305302031D342B023020000E0421000F
:10066000D50022008E00080003305302031D402BEA
:10067000043020000E042100D50022008E00080066
:1006800004305302031D4C2B083020000E042100BF
:10069000D50022008E00080005305302031D582BA0
:1006A000103020000E042100D50022008E0008002A
:1006B00006305302031D642B203020000E0421005D
:1006C000D50022008E00080007305302031D702B56
:1006D000403020000E042100D50022008E000800CA
:1006E00008305302031D7B2B803020000E042100B4
:1006F000D50022008E0008002100BA003A03031D35
:10070000892BFE3020000E052100BC0022008E0047
:10071000080002303A02031D952BFD3020000E0523
:100720002100BC0022008E00080003303A02031DA5
:10073000A12BFB3020000E052100BC0022008E0002
:10074000080004303A02031DAD2BF73020000E05DF
:100750002100BC0022008E00080005303A02031D73
:10076000B92BEF3020000E052100BC0022008E00C6
:10077000080006303A02031DC52BDF3020000E05AD
:100780002100BC0022008E00080007303A02031D41
:10079000D12BBF3020000E052100BC0022008E00AE
:1007A000080008303A02031DDC2B7F3020000E05C4
:1007B0002100BC0022008E000800D3005303031D5B
:1007C000E92B013020000E062100D50022008E000A
:1007D000080002305302031DF52B023020000E06E4
:1007E0002100D50022008E0008000330530284311E
:1007F000031D022C043020000E062100D50022002B
:100800008E00080004305302031D0E2C0830200017
:100810000E062100D50022008E000800053053028C
:10082000031D1A2C103020000E062100D5002200D6
:100830008E00080006305302031D262C20302000B5
:100840000E062100D50022008E000800073053025A
:10085000031D322C403020000E062100D50022005E
:100860008E00080008305302031D3D2C803020000C
:100870000E062100D50022008E000800BD00C00138
:1008800022008E010A302000A800A90121003D08A5
:100890002000A400A50180312C2020002A0821007E
:1008A000BF0082313B2221004510843120008C1989
:1008B0000C1E5C2C210045142100451C9F2C3F0878
:1008C000C600C801752C031020000E0D2100C200C7
:1008D00001304204C30022008E0096302100DD006A
:1008E000DE0181319B212100C80A4808460284317B
:1008F000031D632C20000E08210040020319862CE2
:100900000318862C20000E082100C0003F08CA00F2
:10091000D101992C031020000E0C2100C2002200EE
:100920008E0096302100DD00DE0181319B21210007
:10093000D10A51084A028431031D8A2C532C82317A
:100940003B2222008E01080022008E012100D301EB
:10095000591482313B2285312100591C182D53082E
:100960008431031DBA2C183022008E000130210082
:10097000D300EE2C5303031DC42C3C3022008E0008
:1009800002302100D300EE2C02305302031DCF2C85
:100990007E3022008E0003302100D300EE2C033085
:1009A0005302031DDA2CFF3022008E000430210098
:1009B000D300EE2C04305302031DE52C7E302200C0
:1009C0008E0005302100D300EE2C05305302031DAC
:1009D000EE2C3C3022008E002100D3011430D500D3
:1009E0005508D9170319D9135A10D91FFC2C200008
:1009F0000C1EFC2C21005A142100DA1085315A1CDF
:100A0000062D20008C1D062D2100DA142100DA1C91
:100A1000122D0A30DD00DE0181319B212100D5033A
:100A20008431F02C55085914031D59108431AB2C16
:100A300082313B2222008E01080022008E0121001B
:100A4000A001A10182313B22210029108531200023
:100A50008C190C1E2D2D210029140130210021029A
:100A6000031D342D2C302002A9100319392D031C2D
:100A7000A91429152918A91C2911291D6F2D8131A7
:100A80001C212100A50022008E002100A00A0319CC
:100A9000A10AFC0114307C022100A911853103193F
:100AA000532D031CA9152912A91D5B2D20008C1D97
:100AB0005B2D210029162100A912291E642D20007A
:100AC0000C1E642D2100A9162100A91E242DFC0A4C
:100AD0000A30DD00DE0181319B2185314A2D9331C1
:100AE000322382313B2222008E0108002000DD01EA
:100AF0001810F51211107512751A812D2100151399
:100B0000832D210015178B1008000B127511220080
:100B10000D12080022000D16762575110B1608001F
:100B20007625853185253F3020009805CF30180582
:100B300020389800210011140B178B170800200093
:100B4000201075192014080021005910F5185914A7
:100B500020005F082100D300200060082100D5009C
:100B6000751153080800F51EBA2DFF302000A000B3
:100B7000A100080020001608A0001708A100080026
:100B800096019701F5121110181408008231200007
:100B9000111CE72A11101810F5168B14E72A2000F3
:100BA0004A148B180B1E4A104A1CC62D8B10751E3A
:100BB000DB2D7512DC2D7516751AE12D210015132C
:100BC000E32D21001517B32520002008DB002108A4
:100BD000DC008531C02520005D088531031DF32D23
:100BE0000130DD00C62D5D038631031D1B2E0B3049
:100BF0005C028531031DFE2DB8305B024A12031DD5
:100C000003184A1613305C028631031D092E883002
:100C10005B02CA12031D031CCA164A174A1ACA1ECF
:100C20004A134A1F172E0230DD008531C62D85314B
:100C300076258531C62D02305D02031D472E053015
:100C40005C02031D252EDC305B024B10031D0318D4
:100C50004B1409305C02031D2F2EC4305B02CB10F5
:100C6000031D031CCB144B154B18CB1C4B114B1DF8
:100C7000432EF515D701D801D901DA01DE01033081
:100C8000DD008531C62D853176258531C62D0330B1
:100C90005D028531031DC62D01305C028631031DC6
:100CA000532E77305B024B12031D03184B16023094
:100CB0005C02031D5D2E71305B02CB12031D031C11
:100CC000CB164B174B1ACB1E4B134B1F752EF51D16
:100CD000732EDE0A0310D70DD80DD90DDA0D751E4F
:100CE0005714F5119B2EF5159B2E02305C02031D47
:100CF0007B2EEE305B024C10031D03184C140430A5
:100D00005C02031D852EE2305B02CC10031D031C28
:100D1000CC144C154C18CC1C4C114C1D992EDE0AD1
:100D20000310D70DD80DD90DDA0D751A9B2E571457
:100D30009B2E85317625133020005E028631031DFF
:100D4000E52EC201C30104305905C400C5014208A3
:100D5000430444044504CC160319CC120130570552
:100D6000C600C701C801C901460847044804490430
:100D70004C17031D4C13CC17CC1A4C1FCC13CC1F93
:100D8000E12E0310DA0CD90CD80CD70CC201C30128
:100D900001305905C400C501420843044404450418
:100DA000F5140319F510D901DA015808A000590803
:100DB000A1005A08A200A3012008DF005708E000A4
:100DC0007515853176258531C62D8531C62D2000D6
:100DD000670821005314031D53105318F22E2000EE
:100DE00020100800200020140800200067082100BF
:100DF0005314031953100530200067022100D3104B
:100E0000031DD31453155318D31C53118731531991
:100E10000C2F2000201008002000201408002100C2
:100E20008C12080021008C160800122728001E11C1
:100E300087309E05FC309E0568309D0008302500F7
:100E40009E003F309A05F0301A050E389A002200B5
:100E50001E14CF3025009A053430980028001E1546
:100E600008002800171112272000E7010800751F4D
:100E70003F2FE1010330E200E301E401442FE101EF
:100E80000230E200E301E4016508E1046308E400E4
:100E90006208E3006108E200E1016608E10463081A
:100EA000E4006208E3006108E200E1010630FF00AF
:100EB0000310E20DE30DE40DFF0B582F0830E8009E
:100EC000F5170130E70028009501171508003127B4
:100ED00075132000931087302800170538389700C5
:100EE000FC309705F9309600210093140B178B17EF
:100EF0008731152F2100D30020006708031D8C2F98
:100F0000751321005918751753082000E5002100BA
:100F100055082000E600372F080085312000931C7B
:100F2000CF2D931067088731031D982F8531CF2D62
:100F30006703031DA72F0F272000E80368088531EA
:100F4000031DCF2D0430E8000230E700CF2D023022
:100F50006702031DB82F12272000E80368088531B7
:100F6000031DCF2D1330E800F5170330E700CF2D18
:100F700003306702031DF12FF51FD12FC201C301FA
:100F8000C40180306405C50042084304440445049C
:100F90000319CD2F0F278731CE2F1227F513853157
:100FA000CF2DC201C301C40180306405C5004208D1
:100FB0004304440445040319E02F12278731E12F2D
:100FC0000F27F51703102000E10DE20DE30DE40DEE
:100FD000E80368088731031DEF2F0430E7008531EF
:100FE000CF2D04306702031DFD2F122796302000FD
:100FF000E8000530E7008531CF2D053067028831E4
:10100000031D0A28E8036808031D0A2887313127D1
:101010008531CF2D8531CF2D2100A0010130FB007E
:101020002914013022008E002100291CB22808302A
:101030007B022100A91003191F28031CA9142915DC
:10104000A918291C2911291D5F28FC013C307C02AC
:101050002100A91103192E28031CA9152912A91D65
:10106000362820008C1D3628210029162100A912BF
:10107000291E3F2820000C1E3F282100A916210010
:10108000A91E4A280A30DD00DE0181319B21FC0ABD
:1010900088312628291320008C190C1E5128210084
:1010A00029172100291F5D28031020000E0D2100A3
:1010B000A50022008E00FB0A172829101728FB0321
:1010C0007B082100A9170319A9132A14A91B291C9D
:1010D0002A102A1CA528FC013C307C022100AA1001
:1010E00003197428031CAA142A11AA1C7C282000A6
:1010F0008C1D7C2821002A152100AA112A1D852873
:1011000020000C1E85282100AA152100AA1D902868
:101110000A30DD00DE0181319B21FC0A88316C2818
:101120002A1220008C190C1E972821002A16210053
:101130002A1EA328031020000E0C2100A500220067
:101140008E00FB03602829106028FB0AA00A0F30DC
:101150002002031D1428013020000E05FB00210091
:10116000291014289331322382313B2222008E0130
:101170007B0808002100A001A10122008E0182311C
:101180003B2221002510883120008C190C1ECA2812
:101190002100251489312100251C132922008D17D7
:1011A00001302100DD00DE0181319B2122008D1301
:1011B000FC0164307C022100A51088310319E2286B
:1011C000031CA5142511A51CEA2820008C1DEA2863
:1011D000210025152100A511251DF32820000C1E36
:1011E000F3282100A5152100A51DC128FC0AA00A8D
:1011F0000319A10A303020022000A0007530210020
:101200002102200020048931031D0B292100A001A7
:10121000A10193310A230A302100DD00DE01813172
:101220009B218831D9289331322382313B2A0130E6
:10123000FB0022008E012100291020008C190C1EB9
:101240002329210029142100291C8A290130A0000A
:101250007B08FC00A91020008C190C1E31292100EC
:10126000A914083021002002291103193929031C6F
:101270002915A915A918291DA911A91D5B297C08E3
:1012800003194A29013020000E042100A500220084
:101290008E00FC0364302100DD00DE0181319B21E2
:1012A000031020000E0D2100A50022008E00210059
:1012B000A00A89312A297B08FC002100A9122000FC
:1012C0008C190C1E65292100A9167C0821002917FC
:1012D00003192913A917A91A291FA913A91F7F29BF
:1012E000FC036430DD00DE0181319B21031020000E
:1012F0000E0D2100A50022008E0089315D290830E5
:101300007B020319872903188729FB0A1B2901304F
:10131000FB001B299331322382313B2222008E01B4
:10132000080022008E0121002514A51020008C1930
:101330000C1E9C292100A5148A312100A51C2B2AF2
:101340000130A0000430FB002511893120008C19E8
:101350000C1EAC2921002515083021002002A51102
:101360000319B429031CA51525162519A51D251239
:10137000251EF029251CD6297B080319C629013012
:1013800020000E04FC0022008E00FB0332302100FE
:10139000DD00DE0181319B21031020000E0DFC00D9
:1013A00022008E002100A00A8931A4297B0803199C
:1013B000E029803020000E04FC0022008E00FB0398
:1013C00032302100DD00DE0181319B21031020003D
:1013D0000E0CFC0022008E002100A00A8931A429F5
:1013E0000430FB002100A513893120008C190C1E4C
:1013F000FB292100A5177B082100261403192610BC
:10140000A614A51B261CA6108A31A61C242A251C5E
:10141000162A3230DD00DE0181319B2103102000CD
:101420000E0DFC0022008E008A31212A3230DD00B0
:10143000DE0181319B21031020000E0CFC002200F4
:101440008E00FB038931F229251C282A2510292A20
:101450002514893195299331322382313B22220090
:101460008E01080021002F14A0010A302100200263
:101470002F1103193D2A031C2F15AF152F182F1DEF
:10148000AF118B31AF1DB72B0130D300D4018131A7
:10149000BF212100AF1422008E018D130D138D1278
:1014A0002100A00A2008B900FC018A31842A813178
:1014B0001C212100AD0007302D05AE0069308400ED
:1014C00085017C0884072E0A80006930840085012C
:1014D0007C088407000883311B23F4302100DD00E1
:1014E0000130DE0081319B216930840085017C0858
:1014F0008407000883317C23F4302100DD000130B3
:10150000DE0081319B21FC0A7C08210039028A31EE
:10151000031D572A0130D300D4018131BF2122009D
:101520008D17013083311B2301302100A500FC0100
:101530002100AF162F18AF1CAF127C0820022F130A
:101540008A310319A52A03182F17AF17AF1A2F1FB7
:10155000AF138B31AF1FB02B823103228A312000B1
:101560002018B52A21003010B72A210030148B3101
:10157000301C2F2B933132232100A9018A31200006
:101580000C1EC52A2100B010C72A2100B014193042
:10159000290230110319CE2A031C3015B015B018DA
:1015A000301DB011B01DDD2A1430DD00DE018131A7
:1015B0009B212100A90A8A31BE2A193029028B31C8
:1015C000031D182B6930840085017C0884070008FE
:1015D00025028A31031DF92AFC0A22000D17013069
:1015E0002100D300D4018131BF2122000D138B31A2
:1015F000272B22000D138D1682313B2282316D2262
:10160000FB007B088A310319FE2A02307B028B31F2
:10161000031D0E2B2100A001AF10102B21002F1055
:1016200022008E018D128D1382313B228B31272BAC
:10163000250883317C230830210025028B310319D2
:10164000242B0318242BA50A250883311B238A3158
:1016500021002F1C982A82312F228A31982A813129
:10166000ED218B3120002018382B2100B1103A2BAE
:101670002100B1148A31B11C982A93313223210000
:10168000A9018B3120008C1D482B210031114A2BE0
:101690002100311519302902B1110319512B031CF6
:1016A000B11531163119B11D3112311E602B1430B4
:1016B000DD00DE0181319B212100A90A8B31412B04
:1016C00019302902031D992B6930840085017C089B
:1016D000840700082502031D7B2BFC0A22000D173E
:1016E000F4302100DD000130DE0081319B21220039
:1016F0000D138B31A82B22000D138D1682313B2246
:1017000082316D22FB007B088B310319802B023064
:101710007B02031D8F2B2100A001AF10912B210014
:101720002F1022008E018D128D1382313B228B31BE
:10173000A82B250883317C230130210025028B3121
:101740000319A52B031CA52BA503250883311B23F7
:101750008A3121002F1C982A823118228A31982A36
:1017600022008E018D1382313B228A31352A0A30C4
:101770002002031DBF2B8431A4248B31C92B0310FD
:10178000200DAD000310AD0D0310AD0D2D088431FB
:101790003E2482313B2222000D138D128E0108005F
:1017A0008030C0000230C1008030C400C501C601D5
:1017B00040082000A800210041082000A9002100C5
:1017C0003D082000A40021003E082000A500803133
:1017D0002C2020002A082100C80020002B0821000E
:1017E000C900480849048B310319FE2B4408C5047D
:1017F0004108BE024008BD02031CBE030310C10C19
:10180000C00C0310C40CC60A073046028B31031DFE
:10181000D82B450822008E000800FF3022008E00E1
:1018200001302100D300D4018131BF212100BD014D
:10183000031020000E0C2100BF0022008E0001309A
:101840002100D300D4018131BF212100BD0A08301D
:101850003D028C31031D182C0800FF3022008E0041
:101860008D138D120D1321003A14FE0182313B229B
:101870008D3121003A1C172D8C3120008D1A442CFB
:101880008231242282312F2222008D120D138E01EB
:10189000F4302100DD000130DE0081319B21031096
:1018A0007E0D2100B300803106202100A000013010
:1018B0003307803106202100A1002008BD00210847
:1018C000BE008B31D02302302100D300D4018131FE
:1018D000BF2122008E0180316820200020082100D5
:1018E000B300200021082100B40050302000A800DF
:1018F0004630A900210033082000A400210034084C
:101900002000A50080312C20200026082100B500F1
:10191000200027082100B600B8303507A9000B3099
:10192000363DAA0029082A043A1503193A11BA11BA
:101930008C313A1DA02C20000C1EA02C2100BA15C1
:101940002100BA1DB62C2000DE30A0000430A1001A
:101950008C31A10BA92C8C31A00BA62C000000000F
:101960002100A903290A0319AA03922C29082A0491
:101970000319BD2C0D248D310A2D22008D17210055
:101980002008BD002108BE008231C2222100751846
:10199000BA12751CBA163A138C3120000C1ED32CC7
:1019A0002100BA1A3A1721003A1FD72CC62C220060
:1019B0008D138231D32220002008FC002108FD0075
:1019C0008C31751CFA2C22008D16FF308E007E089B
:1019D000031DFE0382313B2282316D222100AF00C4
:1019E0002F088C310319EC2C2F038D31031D0A2D88
:1019F0003A100A2D22000D17FE0A7C082100BD00B6
:101A00007D08BE008B31D02301302100D300D401EA
:101A10008131BF2106307E028D31031D112D210041
:101A20003A109331322382313B228C31382C220000
:101A30000D138D128D1306307E02031D232D84316C
:101A4000A4248D31382D7E0A2100B3002000A4008B
:101A5000A501A601A7010C30A800A901AA01AB01AC
:101A60008031132020002C082100B40084313E2452
:101A700082313B2222008E01080021003314220013
:101A80008D1382313B228D312100331C902D81300A
:101A900022008E001930FC00FD017C087D0421002D
:101AA000B3150319B3113316B319331C3312331E94
:101AB0006C2D0A30DD00DE0181319B21FC037C0AA4
:101AC0000319FD03210033108D3120008C190C1EE9
:101AD0006B2D210033144D2D22008E011930FC0096
:101AE000FD017C087D042100331703193313B3175C
:101AF000331B331CB313B31F432D0A30DD00DE014B
:101B000081319B21FC037C0A0319FD032100331062
:101B10008D3120008C190C1E8F2D21003314712D56
:101B200022008E01210033148E31331C9C2E2200A2
:101B30008D172100B3140130FE0022008E001030FA
:101B40002100A0002730A1003315A9012100B41401
:101B50003318B31CB4108D31B41C942DFC01FD015D
:101B60007D0821002102031DB72D7C0820020319E6
:101B7000C62D031CC62DFC0A0319FD0A20000C30DB
:101B8000A0008D31A00BC22D0000B02D331DCB2D38
:101B90000310FE0DCD2D0310FE0CFC01FD01813064
:101BA0007E05AF002F088E310319972E8D3120004E
:101BB0008C1DDD2D21003412DF2D21003416200074
:101BC0000C1EE52D2100B412E72D2100B4163413AC
:101BD000341EB41A3417341FF02DB3108E31502E2A
:101BE0007E0822008E008E312100331D1C2E7D08C0
:101BF000210021028D31031DFF2D7C082002B4132A
:101C00008E310319052E0318B4173510B41F0D2E8D
:101C100020000C1E0D2E210035142100351C3E2EF7
:101C2000FC0A0319FD0A20000C30A0008E31A00B25
:101C3000172E00008D31F72D7D0821002102031D94
:101C4000232E7C082002B5100319282E0318B51482
:101C50003511B51C302E20008C1D302E210035157D
:101C60002100351D3E2EFC0A0319FD0A20000C3010
:101C7000A0008E31A00B3A2E00001C2E331D422EE8
:101C80003311432E33157C0820022000A0007D086C
:101C90002100210220002004031D502E2100B3103A
:101CA0002100B31C6D2E22008D120D172100A90AF0
:101CB00001302102031D5E2EF430200203196A2E2A
:101CC000031C6A2E0130A102F430A002031CA10300
:101CD0008D31A62D33108D31A62D22000D138D16BA
:101CE0008D13273021002102031D782E1030200291
:101CF0000319802E0318802EF430A0070130A13D77
:101D000082313B2282316D222100AD002D088E31BF
:101D10000319822E2D03031D8F2E3310912E2200C6
:101D20008D129331322382313B228D31A62D7E08D4
:101D300022008E008D31A62D82313B2222000D1310
:101D40008D128D130130210021028E31031DAA2E28
:101D5000F43020020319B82E031CB82E0310290DED
:101D6000AF000310AF0D2F0884313E248E31BA2E00
:101D70008431A42482313B2222008E01080082316A
:101D80003B228531852518302100A50022008E00D8
:101D90008D1721003314B31433118F312100331CFC
:101DA0007C2F82316D222100AD0003302D028E3157
:101DB000031DDD2E33108F31512F02302D028F3154
:101DC000031D1A2FFF30A5000130A90025082200AD
:101DD0008E00FE018E3120000C1EF12E2100B31268
:101DE000F32E2100B31619307E0233130319FA2E95
:101DF000031C3317B317B31A331FB3138F31B31F39
:101E0000092F1430DD00DE0181319B21FE0A8E3165
:101E1000EA2E19307E02031D142F22000D17053003
:101E2000FE0021003315512FB31C182FB310192FAA
:101E3000B314512F2D03031D512F1830A500A901F4
:101E4000250822008E00FE0120008C1D2A2F210073
:101E5000B4112C2F2100B41519307E02341203194D
:101E6000332F031C3416B416B419341EB412B41E26
:101E7000412F1430DD00DE0181319B21FE0A8F31BC
:101E8000242F19307E02031D4C2F22000D17053020
:101E9000FE0021003315512FB31C502FB310512FCA
:101EA000B314331D712F8631E7268F31200020189F
:101EB0005C2F210035105E2F210035143518612F5D
:101EC000532F10302904AF005910B31859142F089C
:101ED000D5002000520887317A2721003311933131
:101EE00032237E088F310319782FFE038E31CD2ED9
:101EF00022000D138E31CD2E080082313B22853118
:101F00008A25FF302100AD00FE01B31022008E01B2
:101F10008D17210033118F3120008C190C1E922F48
:101F20002100331590312100331D082885319F256C
:101F30008F31200020189F2F2100B311A12F2100E5
:101F4000B315B31D892F933132238531A425210088
:101F5000A5003310591833145508A900250820008E
:101F6000520221003312031933162508B316031D3C
:101F7000B3123313331EB31A3317F0302905AF00F1
:101F800010302F02B3130319B3173414331BB31FCC
:101F900034108F31341C892FB410331CD22FB31C52
:101FA000D32FD42FB318B41425082D023411031DD8
:101FB0003415B411B41C3419B41529087E02341236
:101FC000031D3416B412B41D341AB416B41E892F6E
:101FD000B3103318B3142508AD002908FE000F30E4
:101FE0002905AF002F08031DF92F183022008E009D
:101FF000FC2FFF3022008E000D172C302100DD0059
:102000000130DE0081319B2122000D138F31892F99
:102010008531852D82313B2222000D138D1218301F
:102020002100A0007C1420008C190C1E7C10903123
:102030007C1C43282100200822008E003230FB0047
:102040007B08FC140319FC107C152000FC188C1D67
:102050007C11FC157C190C1EFC11FC1D38280A3063
:102060002100DD00DE0181319B21FB03903120281E
:10207000183021002002031D4028FF30A000122844
:102080001830A00012288131ED21FC122000201808
:10209000FC169031FC1E50288F317D27903152283C
:1020A0008E31BF2682313B2222000D138D128D13FB
:1020B0008E01080082313B222100CA144A11CA1144
:1020C00022008E010D138D128D1721004A12BF01BF
:1020D0000130C4009031CA1CEE28B301A030840046
:1020E0008501330884078001B30A05303302031DDC
:1020F0006E28B301053033020319A8280318A82855
:1021000081311C212100C60007304605C700470A5F
:10211000FE00AD014A1005302D02903103199D28B3
:1021200003189D28A030840085012D08840700082D
:102130007E0203194A14AD0A8B284A187A28A03067
:1021400084008501330884077E088000B30A7A285A
:10215000AF01B301A0308400850133088407000378
:10216000C600FF000130C5007F08B9280310C50D67
:10217000FF03031DB6284508AF04B30A0530330238
:10218000031DAA282F0822008E00C8302100C2009B
:102190004208CB150319CB114B12CB1DD4282000BC
:1021A0008C1DD42821004B162100CB124B1EDD289C
:1021B00020000C1EDD282100CB162100CB1EE928B3
:1021C0000A30DD00DE0181319B212100C203903104
:1021D000C8284208CA14031DCA106A2882313B224B
:1021E00085318A252100CA149231CA1CEB2A143089
:1021F000DD00DE0181319B2185319F259131200059
:10220000201805292100CB1307292100CB17CB1F4C
:102210008D299331322321002F0822008E00853131
:10222000A4252100B8005508B90038082000520242
:1022300021004C1003194C14F0303905C600203031
:102240004602CC100319CC144C154C18CC1C4C1164
:1022500091314C1D8D290F30B905D20139088331D8
:10226000DD23FA302100DD00DE0181319B212100D8
:1022700039088331DD23FA302100DD00DE018131B0
:102280009B212100D20A033052029131031D2E29D5
:102290003903C600FF000130B9007F08522903103E
:1022A000B90DFF03031D4F293909C600AF052F08DB
:1022B00022008E0021002F08031D64292030BA005F
:1022C000CA156430C00066292130BA0085318525E1
:1022D0008631E72691312000201871292100CC1287
:1022E00073292100CC16CC1A7629682959103A088E
:1022F000D5002000520887317A278631F5269131A2
:102300002000201886292100CC1388292100CC1711
:10231000CC1F8B297D2985318A2582316D222100B0
:10232000B700033037029131031D9929CA10923149
:10233000392A02303702031DE82993313223220063
:102340008E012100440883311B232100C2019131F9
:1023500020000C1EAE2921004D11B02921004D1581
:1023600019304202CD110319B729031CCD154D16A2
:102370004D19CD1D4D124D1EC6291430DD00DE0154
:1023800081319B212100C20A9131A72919304202D3
:10239000031DCC294A16E329083044024D130319C2
:1023A000D329031C4D173F08CD170319CD134E1425
:1023B0004D1BCD1F4E104E18C40A22008E01210065
:1023C000440883311B2332302100BF009231392A67
:1023D00037039231031D392A93313223933132234B
:1023E00022008E012100440883311B232100C201F9
:1023F000923120008C1D002A21004E119231022AB8
:1024000021004E1519304202CE11923103190A2AC9
:10241000031CCE154E164E19CE1D4E124E1E192AF5
:102420001430DD00DE0181319B212100C20A91318F
:10243000F82919304202031D1F2A4A16362A013094
:1024400044024E130319262A03184E173F08CE17CD
:102450000319CE134F144E1BCE1F4F104F18C40339
:1024600022008E012100440883311B2332302100D9
:10247000BF00BC0192314A1ED22A93313223203050
:1024800021004404BA0022000D178D1605302100EA
:102490003C02CF10923103194F2A031CCF144F1561
:1024A0004A1ACF1C4F114F1DC72A85318525863109
:1024B000E726923120002018602A2100CF11622ADD
:1024C0002100CF15CF19652A572A59103A08D5008F
:1024D0002000520887317A278631F5269231200074
:1024E0002018752A2100CF12772A2100CF16CF1E7F
:1024F0007A2A6C2A85318A252100BD0164303D028B
:102500004F1392310319862A031C4F17CF174A1A0B
:102510004F1FCF13CF1FC52A1430DD00DE018131DC
:102520009B2185319F259231200020189A2A210075
:1025300050109C2A21005014501CC32A8531A42518
:102540002100B8005508B9003808200052022100C7
:10255000D0100319D014F0303905C60020304602DF
:10256000501103195015D015D018501DD0119231AB
:10257000D01DC32A4A120F303905C6004608031D74
:10258000C32A4A15CA10BD0A7E2ABC0A462A4A1E18
:10259000CF2A22000D138D1621004A12D22A2200C2
:1025A0000D178D1221003F080319D82ABF03DD2A19
:1025B0002F0822008E000D138D1290312100CA1DAC
:1025C000F428400892310319E82AC0039031F42816
:1025D000CA109031F42885318525923121004A1D99
:1025E000F82A8431A42422000D178D129331022B76
:1025F00022008E010D138D1602302100D300D4016C
:102600008131BF2182313B2222000D138D128D13A7
:102610008E01080022008E010D138D128D1385315D
:102620008525270093111312921512168B1563003E
:102630009331322382313B2A42142700931D131A0F
:10264000232B200042102000C21442188B1DC21000
:102650008731C21C8D2F2700931113129211121271
:102660008B118D2F2000CE01CF01D001D1010800A8
:1026700020007F30A0003D30A1002930A20093311E
:10268000A20B402B9331A10B3D2B9331A00B3B2B85
:10269000CB2B2100A00022000D178D168E012100EA
:1026A00025142008031D562B0130A00082313B2247
:1026B00093312100251CC22B200822008E0082317C
:1026C0006D22FB0002307B029331031D932BFC0132
:1026D00020000C1E6E2B2100A511702B2100A515CA
:1026E00019307C0225120319772B031C2516A51619
:1026F000A519251EA512A51E852B1430DD00DE01AF
:1027000081319B21FC0A9331682B19307C02031D17
:102710008B2B2510582BFE3020020319922B031807
:10272000922BA00A582B7B03031D582BFC01200081
:102730008C1D9D2B2100A6109F2B2100A614193063
:102740007C0226110319A62B031C2615A615A61814
:10275000261DA611A61DB42B1430DD00DE0181312B
:102760009B21FC0A9331972B19307C02031DBA2B55
:102770002510582B013020020319C12B031CC12B3B
:10278000A003582B22000D138D128E0182313B22A3
:102790002100200808008231B02285319025873140
:1027A000672722008D170D178D16FF308E00013020
:1027B0002100D300D4018131BF2122008E018D136D
:1027C0000D138D122100A001A10181311E212000D5
:1027D000D200520A9331031DF62B0130D2002100A2
:1027E000A001A101200052088131362182316D22E1
:1027F000F400033074029431031D0B2C20005208A6
:10280000933149232000D2002100A001A101200022
:10281000520881313621F30185311D250A3021000E
:10282000DD00DE0181319B2173089431031D1D2CD5
:1028300088310C20F30094310E2C7303031D252CDA
:102840008831BA20F30194310E2C02307302031D3B
:102850002E2C89311721F3019431732C033073022C
:10286000031D372C89319121F3019431732C0430ED
:102870007302031D402C8A313222F3019431732CF0
:1028800005307302031D492C8C312D24F301943142
:10289000732C06307302031D522C8D313D25F3013C
:1028A0009431732C07307302031D5B2C90310A2086
:1028B000F3019431732C08307302031D642C9031A2
:1028C0005A20F3019431732C09307302031D732CC9
:1028D0008131ED2177122000201877169431771E70
:0828E000732CF3010E2C0E2CE9
:020000040001F9
:02E0000000001E
:02000E00840F5D
:02001000FF1ED1
:00000001FF
